:02000002B0004C
:1040000000400B00FC7A0B00000006000C000502CB
:084010000401810C0000000016
:0440180098770B008A
:1040200009480A49884208B505D0094A824202D0A7
:10403000121A03F0FFFA0748074A0021121A03F088
:1040400007FB014808BD00BF2CE60320647A0B0083
:104050009CE603209CE60320EDE7032070B5074EA5
:10406000074C01F0A3F8A41BA4080025AC4200D122
:1040700070BD56F8043B98470135F7E73C7A0B00D2
:10408000607A0B0000F014B808B500F027F8BDE81E
:10409000084001F043B800F02DBE00F033BE0078B8
:1040A000B0FA80F0400970470123037070470000A8
:1040B00008B501F083F94FF4165101F073F901F0DE
:1040C0007DF9044900F0DBFEBDE80840024800F03D
:1040D000B1B800BFAC770B009CE6032008B52E48B2
:1040E0002DED048B00F01AFC2B48F0EE408A00F016
:1040F000E7FBF4EE408AF1EE10FAB0EE408A08D702
:1041000001F05CF9BDEC048B2449BDE8084000F0E7
:10411000B6BE214800F004FC1F48F0EE409A00F0C3
:1041200027FCB0EE409A01F049F91D4900F094FED9
:1041300001F044F9B0EE680A022100F09CFF01F0A2
:104140003DF9184900F088FE01F038F9B0EE480A50
:10415000022100F090FF01F031F9134900F07CFEDC
:1041600001F02CF9B0EE690A022100F084FF01F0A1
:1041700025F90E4900F070FE01F020F9B0EE490A71
:10418000022100F078FFBDEC048B41F28830BDE8DD
:10419000084000F097BF00BF9CE60320B8770B00F3
:1041A000D8770B00E2770B00F0770B00FD770B0060
:1041B000024806230B22082100F035B89CE60320B4
:1041C00010B503682F2B044604D9074A00210A20A2
:1041D00000F0FCFC23681F2B83BF03F01F03034880
:1041E00023604FF0A04010BD0D4A0B0000030050AB
:1041F00007B5019001A8FFF7E3FF019A012393405F
:10420000C0F8083503B05DF804FB07B5019001A8BC
:10421000FFF7D6FF019BD0F81005D84000F0010051
:1042200003B05DF804FB10B5037201238171C27104
:10423000037410BD2DE9F04104461C4F80791C4EDB
:10424000002101F09DFAA5793B78BFF35B8F13F055
:10425000010F09D13846FFF722FF28B100F0AEFB6D
:1042600030603846FFF720FF33682D0113F80580D2
:104270003B78BFF35B8FDB074FEA481809D40B4844
:10428000FFF70DFF28B100F099FB30600748FFF7FA
:104290000BFF33681D44687800F01F0040EA0800F7
:1042A000FFF7A6FF0023E360BDE8F081B0E603203E
:1042B000B4E6032010B52DED028B10EE104A02F08B
:1042C00001FE41EC180B204602F00EFEB0EE481A3B
:1042D000F0EE681ABDEC028B41EC100BBDE810400B
:1042E00001F0DEBA000000002DE9F84310EE100ADC
:1042F0002DED028BB0EE608AF0EE408A02F0F4FD04
:10430000044618EE100A0D4602F0EEFD54A3D3E960
:10431000002306460F462046294602F03DFE52A3E2
:10432000D3E9002302F080FC51A3D3E900238046A7
:1043300089463046394602F02FFE02460B4640467B
:10434000494602F073FC4CA3D3E90023804689461A
:104350002046294602F020FE32463B4602F01CFE73
:1043600002460B464046494602F060FCB0EE680A41
:10437000804602208946FFF79DFF41A3D3E9002331
:1043800051EC100B02F008FE42464B4602F04EFC88
:10439000B0EE480A804602208946FFF78BFF3AA319
:1043A000D3E9002351EC100B02F0F6FD42464B46D8
:1043B00002F03CFCB0EE680A804602208946FFF716
:1043C00079FF33A3D3E9002351EC100B02F0E4FD95
:1043D00032463B4602F0E0FD42464B4602F026FCE8
:1043E000B0EE480A064602200F46FFF763FF59EC7D
:1043F000108B29A3D3E900232046294602F0CCFDE7
:1044000042464B4602F0C8FD32463B4602F00EFCE7
:10441000B0EE680A044602200D46FFF74BFF02206B
:1044200059EC108BB0EE480AFFF744FF57EC106BC5
:104430001BA3D3E900234046494602F0ADFD3246B6
:104440003B4602F0A9FD22462B4602F0EFFB03F0AB
:104450009BF8BDEC028B00EE100ABDE8F88300BFAC
:10446000ECD8CE18626400408D976E1283304540C0
:10447000CD495AB762492440F847C607C9C4CCBFE2
:10448000CC169C03FC017CBF248CD100FF10ACBF78
:10449000E5DC6087B521543FDA303301F9F14B3F59
:1044A00001BDD3117EB1C0BE2DE9F84310EE100A54
:1044B0002DED028BB0EE608A02F016FD9FED280A0A
:1044C00088EE000A04460D4601F0BCFA20A3D3E9A9
:1044D00000232046294610EE106A02F05DFD1EA35F
:1044E000D3E90023804689462046294602F09EFBF8
:1044F00002460B464046494602F078FE04463046E6
:104500000D4602F0F1FC02460B462046294602F019
:104510008DFB11A3D3E9002306460F4602F03CFDB4
:10452000324604460D463B4609A1D1E9000102F09E
:104530007BFB02460B462046294602F057FE03F05D
:1045400023F8BDEC028B00EE100ABDE8F88300BF33
:104550004C378941604531406666666666B66D4097
:104560000000C8422DE9F04F044685B000F056FA2D
:10457000E368834284BF0023E360237C2BB9E368B4
:10458000C01AB0F5FA6FC0F060810025257400F004
:1045900045FAB04E25602571E060A7793378AE4DBD
:1045A000BFF35B8F13F0010F09D13046FFF777FDA2
:1045B00028B100F003FA28603046FFF775FD2B683C
:1045C0003F0113F807803378BFF35B8FD9074FEAB9
:1045D000481809D49F48FFF762FD28B100F0EEF9B2
:1045E00028609C48FFF760FD2B683B44587800F03A
:1045F0001F0040EA0800FFF7FBFDFA2000F062FD13
:10460000A079012101F0BCF8A7793378BFF35B8F63
:10461000DA0709D48F48FFF742FD28B100F0CEF940
:1046200028608C48FFF740FD2B683F01DB5D4FEAB7
:1046300043183378BFF35B8FDB0709D48548FFF756
:104640002EFD28B100F0BAF928608248FFF72CFD52
:104650002B683B4403A85B7803F01F0343EA08037D
:104660000393FFF7ADFD039A01239340C0F80C3587
:10467000142000F027FD00F0C7FEA7793378BFF3C0
:104680005B8FD80709D47348FFF709FD28B100F004
:1046900095F928606F48FFF707FD2B683F0113F875
:1046A00007803378BFF35B8FD9074FEA481809D4E6
:1046B0006848FFF7F4FC28B100F080F928606548ED
:1046C000FFF7F2FC2B683B440027587800F01F00EE
:1046D00040EA0800FFF78CFD282000F097F9A07948
:1046E000DFF87081002101F04BF80123BA460093F6
:1046F0004FF0000994F806B03378BFF35B8FDA0708
:1047000009D44046FFF7CBFC28B100F057F92860E8
:104710004046FFF7C9FC2B684FEA0B1B13F80B3020
:104720005B0101933378BFF35B8FDB0709D440460D
:10473000FFF7B5FC28B100F041F928604046FFF7CB
:10474000B3FC2B685B4493F801B0019B0BF01F0B8B
:104750004BEA030B5846FFF758FD5846FFF755FD47
:10476000009B834209D109F101095FFA89F901200F
:1047700000F04CF9B9F1FF0FBCD194F806B03378D2
:10478000BFF35B8FD80709D44046FFF788FC28B1F8
:1047900000F014F928604046FFF786FC2B684FEACA
:1047A0000B1B13F80B305B0100933378BFF35B8F67
:1047B000D90709D44046FFF772FC28B100F0FEF893
:1047C00028604046FFF770FC2B685B4493F801B00B
:1047D000009B0BF01F0B4BEA030B5846FFF715FD30
:1047E0005846FFF712FDB9F1FF0FC3B2009318D07E
:1047F000032F11D9FA070FD44FEADA020AF1010A9E
:10480000A35C5B00DBB2A354217A49453CBF43F073
:104810000103A3545FFA8AFA0137FFB2552F7FF4E0
:1048200067AF00F0F3FDBAF1270F10D96378207855
:104830001844A3781844E37818442379C0B2C31A03
:104840005842584105B0BDE8F08F0120FAE700203A
:10485000F8E700BFB0E60320B4E6032010B5044635
:10486000FFF780FE20B3E3790B2B1BD0153B012B08
:104870001ED8A378DFED106A03F07F0207EE102A3E
:10488000E27807EE902AB8EEC77AF8EEE77A1B06D0
:10489000E7EE267AB2EE047A87EE870A07D5B1EE04
:1048A000400A04E0A37800EE103AB8EE400A10BDCA
:1048B0009FED020AFBE700BF000080430000C07FBD
:1048C000FFF7CCBF10B50446FFF74CFEF0B1E3791B
:1048D0000B2B15D0153B012B18D82378DFED0D6A73
:1048E00007EE103A637807EE903AB8EE477AF8EEA2
:1048F000E77AE7EE267AB2EE047A87EE870A10BDF1
:10490000237800EE103AB8EE400AF8E79FED020A6D
:10491000F5E700BF000080430000C07FFFF7D2BF73
:1049200010B52DED048B0446FFF798FF2046F2EEFC
:10493000028AB0EE408AFFF7C5FF28EE288AB1EE62
:10494000049AF0EE400A88EE090A20469FED078A95
:1049500030EE080AFFF7C8FC30EE480A20EE090ADC
:1049600080EE280ABDEC048B10BD00BF00000042A1
:1049700010B52DED028B0446FFF770FF2046B0EE18
:10498000408AFFF79FFFF0EE400AB0EE480ABDEC08
:10499000028B2046BDE81040FFF786BD08B5024BEC
:1049A0001B689B68019308BD6802030008B5024BB1
:1049B0001B68DB68019308BD6802030008B5024B61
:1049C0001B681B68019308BD2C02030008B5024B4D
:1049D0001B689B68019308BD2C02030008B5024BBD
:1049E0001B681B6A019308BD2C02030008B5024B2B
:1049F0001B685B6A019308BD2C02030008B5024BDB
:104A00001B685B68019308BD1802030008B5024BE0
:104A10001B68DB68019308BD1802030008B5024B50
:104A20001B685B69019308BD1802030008B5024BBF
:104A30001B685B6C019308BD4802030008B5024B7C
:104A40001B685B69019308BD6402030008B5024B53
:104A50001B68DB68019308BD3C02030008B5024BEC
:104A60001B681B69019308BD3C02030008B5024B9B
:104A70001B685B69019308BD3C02030008B5024B4B
:104A80001B689B69019308BD3C02030008B5024BFB
:104A90001B68DB69019308BD3C02030008B5024BAB
:104AA0001B681B6A019308BD3C02030008B5024B5A
:104AB0001B689B6A019308BD3C02030008B5024BCA
:104AC0001B681B6C019308BD3C02030008B5024B38
:104AD0001B681B6A019308BD2802030008B5024B3E
:104AE0001B685B6A019308BD2802030008B5024BEE
:104AF0001B689B6A019308BD2802030008B5024B9E
:104B00001B68DB6A019308BD2802030008B5024B4D
:104B10001B681B6B019308BD2802030008B5024BFC
:104B20001B685B6B019308BD2802030008B5024BAC
:104B30001B681B6C019308BD2802030008B5024BDB
:104B40001B68DB69019308BD3002030008B5024B06
:104B50001B681B6A019308BD3002030008B5024BB5
:104B60001B681B68019308BD4C02030008B5024B8B
:104B70001B685B68019308BD4C02030008B5024B3B
:104B80001B681B69019308BD4C02030008B5024B6A
:104B90001B685B69019308BD4C02030008B5024B1A
:104BA0001B689B69019308BD4C02030008B5024BCA
:104BB0001B68DB69019308BD4C02030008B5024B7A
:104BC0001B681B6A019308BD4C02030008B5024B29
:104BD0001B685B6B019308BD6002030008B5024BC4
:104BE0001B685B68019308BD2002030008B5024BF7
:104BF0001B685B69019308BD2002030008B5034BE5
:104C00001B68D3F88830019308BD00002002030020
:104C100008B5034B1B68D3F89430019308BD00001E
:104C20002002030008B5024B1B685B68019308BDB6
:104C30004002030008B5024B1B689B68019308BD46
:104C40004002030008B5024B1B68DB68019308BDF6
:104C50004002030008B5024B1B681B69019308BDA5
:104C60004002030008B5024B1B685B69019308BD55
:104C70004002030008B5024B1B689B69019308BD05
:104C80004002030008B5024B1B68DB69019308BDB5
:104C90004002030008B5024B1B681B6A019308BD64
:104CA0004002030008B5024B1B681B6B019308BD53
:104CB0004002030008B5024B1B685B6B019308BD03
:104CC0004002030008B5024B1B681B6C019308BD32
:104CD0004002030008B5024B1B685B6C019308BDE2
:104CE0004002030008B5024B1B68DB6B019308BD53
:104CF0004402030008B5024B1B681B68019308BD02
:104D00001C02030008B5024B1B685B68019308BDD9
:104D10001C02030008B5024B1B68DB6B019308BD46
:104D20001C02030008B5024B1B681B6C019308BDF5
:104D30001C02030008B5024B1B685B6C019308BDA5
:104D40001C020300002240681146FFF7A3BF0022A7
:104D500040681146FFF7AEBF40680022FFF7A2BFD0
:104D60004068002281F00101FFF78CBF00234068FA
:104D70001A461946FFF77EBF002340681A461946B7
:104D8000FFF770BF002240681146FFF763BF0022A3
:104D900040681146FFF74EBF406800220221FFF72E
:104DA00051BF002340681A46FFF73CBF024B032265
:104DB0005A60024A1A607047B8E6032014780B0064
:104DC00010B5044608462170FFF7B8FE0023636063
:104DD000204610BD054B02221A60054B054A9A6019
:104DE0000020C3E90000FFF7F9BE00BFCCE60320B6
:104DF000C0E603200000FFFF024800230360FFF726
:104E000015BE00BFD0E60320F8B506460D468F1844
:104E10000024BD420CD0336815F8011B9B68304656
:104E20009847031E01DB1C44F3E7002C08BF1C4617
:104E30002046F8BD13B50446084659B1019102F069
:104E40003DFC23680199DB680246204602B0BDE8BC
:104E50001040184702B010BD08B5FFF7EBFF08BDC2
:104E600003689B68184738B50D210546FFF7F8FF22
:104E70000A2104462846FFF7F3FF204438BD38B521
:104E80000546FFF7D7FF04462846FFF7ECFF20440E
:104E900038BD30B58BB00023012A8DF8243098BF7F
:104EA0000A2209AC0D46B1FBF2F101FB125303F0EB
:104EB000FF03092B94BF30333733DBB2AA4204F827
:104EC000013DEFD92146FFF7B5FF0BB030BD000023
:104ED0002DE9F74F55EC104B06460F4610EE102A01
:104EE00010EE100A2B46294602F0F0FA40B1534961
:104EF0003046FFF79FFF8246504603B0BDE8F08F73
:104F000025F000494E4B4FF0FF322046494602F053
:104F1000DDFA48B94A4B4FF0FF322046494602F0CD
:104F2000B7FA08B94749E3E7474B4FF060422046DC
:104F3000294602F0C1FA08B14449D9E7444B4FF081
:104F400060422046294602F099FA0028F4D1002256
:104F500000232046294602F091FAD0B12D21304697
:104F6000FFF77EFF05F1004382461D463949DFF811
:104F7000EC904FF0000B00204FF000085FFA8BF32D
:104F80009F4208D942464B4602F030F90BF1010B23
:104F9000F4E78246EAE722462B4601F047FE0D463B
:104FA000044602F0D1FA804601F07CFF02460B462F
:104FB0002046294601F038FE0A2204460D463046B6
:104FC0004146FFF766FF8244002F95D02249DFF863
:104FD0008C903046FFF72EFF4FF000088244002FE0
:104FE0008AD042464B462046294601F0D5FF04466A
:104FF0000D4602F081FAB0F1000B1CDA2D2130468B
:10500000FFF72EFFCBF1000103460A223046019341
:10501000FFF73FFF019B18448244584601F052FFBE
:1050200002460B462046294601F0FEFD013F04469C
:105030000D46FFB2D3E759460023E6E748780B0058
:10504000FFFFEF7F4C780B00FFFFEF4150780B0024
:10505000FFFFEFC10000E03F54780B000000244048
:1050600038B5C9B20546FFF733FF04462846FFF7B7
:10507000FAFE204438BD38B5044610EE100A0D463D
:1050800001F032FF41EC100B29462046BDE83840C4
:10509000FFF7E6BF002340681A461946FFF7E2BD56
:1050A000014B024A1A607047D4E6032056780B0081
:1050B000024B1A68024B1A60704700BF2CE60320AF
:1050C000D8E603200021FFF791BD0000014B00222C
:1050D0009A607047DCE60320014B1860704700BF00
:1050E00034E6032008B50B4B43B100F067F90368C1
:1050F0001B699847002801DDAFF30080064B43B1E0
:1051000000F06AFB03681B699847002801DDAFF3D4
:10511000008008BD000000000000000008B5FFF797
:10512000E1FFFFF77BFC014B186008BD40E703205F
:105130000548064A064908B5121A02F07BFA054BE3
:10514000054A1A6008BD00BF00F4032004F40320E0
:10515000607A0B0000F403201E1C279A07B5002379
:1051600000931A466FF07701FFF752FD03B05DF828
:1051700004FB000007B543880A2B08D0502B0BD145
:10518000094B1B684BB103B05DF804EB1847FFF700
:10519000E5FF03B05DF804FB002300931A466FF0AF
:1051A0007701FFF735FDF4E7F0E6032010B512486C
:1051B0000021FFF7BFFD114B1A68114B9A42114BAA
:1051C0000CBF012200221A7001D0FFF7B1FFFFF7D8
:1051D00015FC044602F044FA0B4B13B12046AFF322
:1051E000008000210848FFF77DFDBDE8104007481A
:1051F0000021FFF703BD00BFD9500B0000F40320CE
:105200001E1C279AECE603200000000075510B00DD
:10521000704710B518210446FEF73FFF204610BD29
:10522000F0B5037D062B8DB00E4600F104074FF05C
:10523000000412D000F1080515F8011D0A223046BD
:10524000FFF727FEAF42044419D0002CF4D02E21E2
:105250003046FFF705FE0444EEE72F236A46394641
:105260000A208DF80040FFF7E9FB684602F026FAB5
:1052700033680246DB686946304698470446204654
:105280000DB0F0BD10B5054B0446112240F8043BAB
:10529000002102F0DDF9204610BD00BF80780B0030
:1052A0000346074A10B543F8042B01F1100251F8E8
:1052B000044B43F8044B9142F9D10A781A7010BD9F
:1052C00080780B0010B59DF8084044EA032343EAB8
:1052D000024242EA016104234160037510BD0000EF
:1052E00007B5064B0360CB7800938B784A78097832
:1052F000FFF7E8FF03B05DF804FB00BF80780B0008
:10530000417470477047704708B50021007CFFF773
:1053100045FC40EAE07008BD08B50121007CFFF7BC
:105320003DFC40EAE07008BD08B5007CFFF72EFCAC
:1053300020EAE07008BD08B5007CFFF71FFC20EAFA
:10534000E07008BD13B50446007C0191FFF71EFC18
:105350000028019901DC607C20B1207CFFF726FC4D
:1053600020EAE07002B010BD007CFFF727BC10B54A
:1053700014210446FEF791FE204610BD10B54FF4EF
:105380007A73044608460021C4E90113044B2360E4
:105390000123207463741146FFF7E0FB204610BD23
:1053A00094780B00007C0022FFF7E0BB10B51422BC
:1053B0000446002102F04CF9204610BD10B50F4CF8
:1053C00088B003A8FFF7F2FF2178BFF35B8F11F0DD
:1053D00001010FD120460191FEF761FE019948B10C
:1053E00003AA0748FFF7CAFF2046FEF75DFE0548FF
:1053F00002F01AF9024808B010BD00BFF4E603201D
:10540000F8E6032005530B00FFF7F0BAFFF7E6BA02
:1054100070474174704708B5007CFFF747FB20EAEE
:10542000E07008BD08B5007CFFF718FB20EAE070CB
:1054300008BD08B5007CFFF721FB40EAE07008BD1D
:1054400008B5007CFFF712FB40EAE07008BD007C65
:10545000FFF71CBB37B5457C04462DB1207C03B05B
:10546000BDE83040FFF7F2BA007C0191FFF71EFB68
:1054700000280199F2DC284603B030BD10B5142194
:105480000446FEF70AFE204610BD000010B54FF49A
:105490007A730446084611460022C4E90123044BEE
:1054A0002360012320746374FFF708FB204610BDBE
:1054B000C4780B007047F8B5064615460C468F18A1
:1054C000BC4206D0336814F8011B9B6830469847ED
:1054D000F6E72846F8BD007C0022FFF7F7BA007C0B
:1054E0000021FFF7FBBA007C0021FFF7FFBA007C28
:1054F0000021FFF703BB007C0021FFF707BB10B5BD
:1055000014210446FEF7C9FD204610BD10B54FF426
:105510007A73044608460021C4E90113034B236053
:1055200020741146FFF702FB204610BDF4780B00F3
:10553000002240681146FFF78DBB002240681146EB
:10554000FFF7A8BB002240681146FFF7B3BB4068D5
:105550000022FFF7A7BB4068002281F00101FFF79E
:1055600091BB002340681A461946FFF783BB00220F
:1055700040681146FFF75EBB406800220221FFF73A
:1055800061BB002340681A46FFF74CBB024B042264
:105590005A60024A1A6070470CE703201C790B001E
:1055A000002340681A46FFF73DBB406800220221F5
:1055B000FFF748BB002240681146FFF73BBB0022C3
:1055C00040681146FFF746BB002340681A4619465B
:1055D000FFF748BB002340681A461946FFF74ABB4D
:1055E00040680021FFF76EBB40680021FFF772BBE7
:1055F0004068002281F00101FFF744BB40680022AF
:10560000FFF750BB002240681146FFF753BB002252
:1056100040681146FFF73EBB2DE9F04395B01446B4
:105620000D460746FFF72EFE00211C220DA8009113
:1056300002F00EF840230C9320466B460CAA002182
:10564000FFF7B4F9044600284BD1024601216868EF
:10565000FFF700FB0221804622466868FFF7FAFA4E
:10566000009E81462146002E3BD0002939D1736827
:10567000022B03D00A2B11D0F669F4E7B8F1000F22
:10568000FAD0716906A8043107ADFFF729FE0FCDE6
:105690003C1D0FC42B6823704146EDE7B9F1000FA4
:1056A000EAD07469102201A801F0D2FF06238DF818
:1056B000143001AD04F108031834186859682A46FB
:1056C00003C20833A3421546F7D101A906A807ADC6
:1056D000FFF7E6FD0FCD3C1D0FC42B682370494634
:1056E000CAE70098FFF75AF9384615B0BDE8F083CD
:1056F000024B034A1A6000225A60704714E70320E5
:1057000058790B00232813B502D9002002B010BD30
:10571000A0F10B03022B1AD8174C2178BFF35B8F33
:1057200011F001010BD120460191FEF7B8FC01995F
:1057300028B11248FFF744FB2046FEF7B5FC0F4B9B
:105740001878FFF703FA0028DFD10120DEE70128EF
:1057500009D800F07DF80021007CFFF7DFF980F028
:105760000100C0B2D2E709380128EED800F034F8C1
:10577000007CFFF793F9F2E71CE7032020E7032002
:10578000232838B504460D460AD8FF2908D0FFF76C
:10579000B9FF28B129462046BDE83840FFF716B9C1
:1057A00038BD704738B5044614252A46002101F05B
:1057B0004FFF25804025074925812846258200F096
:1057C0006BF804496060284600F066F8E060204607
:1057D00038BD00BF8C790B0030B50E4D2978BFF372
:1057E0005B8F11F0010487B011D12846FEF757FCFA
:1057F00068B101A8FFF7D6FF01AA21460648FFF7C6
:1058000045FE2846FEF750FC044801F00DFF024813
:1058100007B030BD28E703202CE70320A3570B0077
:105820007047000038B520251423044603608560C6
:1058300005610649284600F02FF8044960602846B3
:1058400000F02AF8E060204638BD00BF8C790B00DC
:1058500030B50E4D2978BFF35B8F11F0010487B08E
:1058600011D12846FEF71BFC68B101A8FFF7DAFF4B
:1058700001AA21460648FFF749FE2846FEF714FC18
:10588000044801F0D1FE024807B030BD44E70320D0
:1058900048E7032021580B00FEF7FDBB0000000085
:1058A000F8B52DED028B57EC106B55EC114B00F059
:1058B000FFF8634BB0EE408AF0EE608A93F9003057
:1058C00001332AD022462B462046294601F0FEFD10
:1058D00018BB32463B463046394601F0F7FD0028FA
:1058E00044D1002200233046394601F0BDFDD8B135
:1058F000002200232046294601F0B6FD00283DD1B4
:1059000045EC104B01F044F838B1204629460022FE
:10591000002301F0B3FD00285CD1B0EE480AF0EEA0
:10592000680ABDEC028BF8BDB0EE480AF0EE680ADA
:1059300001F02EF858B351EC180B0022002301F0AF
:1059400093FD0028E9D047EC106B01F021F8002806
:10595000E3D045EC104B01F01BF80028DDD0FFF739
:10596000D9F922239FED2E8B0360D6E720462946E6
:105970000022002301F078FD0028CED09FED2A8B75
:10598000B0EE480AF0EE680ABDEC028BF8BD47ECB9
:10599000106B00F0FDFF0028CDD045EC104B00F05F
:1059A000F7FF0028C7D053EC182B18EE100A194641
:1059B00001F08CFD20BBFFF7ADF9034622221A60EF
:1059C000304639460022002301F058FD48B99FEDCA
:1059D000188BA2E7FFF79EF921239FED178B036039
:1059E0009BE745EC104B00F0E7FF224651EC100B13
:1059F0002B4601F039FD0028E9D19FED0F8B8CE794
:105A0000FFF788F900220023212101601046194682
:105A100001F0ECFB41EC180B7FE700BFAFF3008017
:105A20000000000000000000000000000000F03F47
:105A3000000000000000F07F000000000000F0FF08
:105A400030E6032008B52DED028BB0EE408A00F061
:105A500095FE144B93F90030013314D0B4EE488A0C
:105A6000F1EE10FA0FD6B5EEC08AF1EE10FA0ADCAC
:105A7000B5EE408AF1EE10FA08D1FFF74BF9222378
:105A80009FED090A0360BDEC028B08BDFFF742F9E8
:105A9000BDEC028B034621221A600448BDE8084091
:105AA00001F0B8B830E60320000080FF90790B00C9
:105AB0002DE9F04F57EC116B2DED0C8B27F0004AC0
:105AC0005AEA060287B03DD055EC104B724925F0DA
:105AD0000048884510EE102AA9462CDC11EE103A39
:105AE000BB4636D08A4526DC6B498A4521D0B9F1C0
:105AF000000F39DB00210091002B51D1664B9A45F4
:105B000000F0A280654B9A4500F0B080BBF1804F59
:105B100000F0C084624B9B4542D1B9F1000F3FDBDE
:105B200045EC104B07B0BDEC0C8BBDE8F04F00F01E
:105B300059BD002BDBD008F1404808F5801858EA21
:105B4000020309D19FED500B07B0BDEC0C8BBDE8F3
:105B5000F08F0CB9C245C7DD524807B0BDEC0C8BC5
:105B6000BDE8F04F00F020BF4F498A4500F3858023
:105B7000A1F154718A450FDD4FEA2A51A1F2FF319C
:105B8000142940F39B84C1F1340123FA01F000FA97
:105B900001F1994200F0ED8400210091002BB1D079
:105BA00045EC104B029200F0E9FE029A5ABBB8F1A4
:105BB000000F04D0394B29F040429A4223D1BBF167
:105BC000000F07DA53EC102B3449002001F00EFBD4
:105BD00041EC100BB9F1000FB6DA009B08F1404818
:105BE00008F5801858EA030340F08D8453EC102B1D
:105BF0001046194601F018F802460B4601F0F6FA75
:105C000041EC100BA0E7009A4FEAD973013B0493D3
:105C1000134335D0254B9A454CDD03F104739A4567
:105C2000234B40F3DB83984540F36083BBF1000FC7
:105C300040F3608316A3D3E900231046194601F010
:105C4000ABF941EC100B7FE708F1404303F58013FB
:105C500013433FF477AF164B984540F37A83BBF17B
:105C6000000FC0F2478347EC106B6DE7BBF1000FEC
:105C7000C0F21A8445EC104B66E7022100913BE725
:105C800022462B46B4E700BF000000000000F03FB2
:105C90009C7500883CE4377E0000F07F0000F03FF8
:105CA0000000E03F90790B00FFFF3F430000E04120
:105CB000FFFFEF3FE44B09EA0303002253B951EC25
:105CC000100BE24B01F068F941EC100B10EE908ADA
:105CD0006FF034024FEA2853A3F2FF339A18DC4BDB
:105CE0000592C8F3130848F07F54984544F44014D3
:105CF00007DDD84B984540F3148401320592A4F592
:105D000080149FEDB96B9FEDBA7B53EC162BB0EE70
:105D100047CAF0EE67CA0025B0EE47DAF0EE67DA60
:105D20005BEC10ABA3465046594643EC1A2B00F0EF
:105D30007BFF53EC1A2B804689465046594600F0AB
:105D400075FF02460B460020C34901F04FFA41ECB3
:105D50001B0B404653EC1B2B494601F01DF941EC4F
:105D6000180B0A460146CDE9021200210291641087
:105D70004BEC19AB44F00054DDE902AB04F5002311
:105D80000020591904460D4602460B465046594616
:105D900001F002F902460B464046494600F044FF36
:105DA00053EC1A2B804689462046294600F03CFFDA
:105DB00002460B4651EC190B00F036FF52465B468B
:105DC00001F0EAF802460B464046494600F02CFF37
:105DD00053EC1B2B01F0E0F853EC182B41EC190BA2
:105DE00051EC180B01F0D8F883A3D3E90023044643
:105DF0000D4601F0D1F882A3D3E9002300F016FF8D
:105E000022462B4601F0C8F87FA3D3E9002300F017
:105E10000DFF22462B4601F0BFF87DA3D3E90023F6
:105E200000F004FF22462B4601F0B6F87AA3D3E92E
:105E3000002300F0FBFE22462B4601F0ADF878A3CC
:105E4000D3E9002300F0F2FE2246804689462B4625
:105E50002046294601F0A0F802460B464046494636
:105E600001F09AF8524604460D465B4651EC180B79
:105E700000F0DCFE53EC192B01F08EF822462B4685
:105E800000F0D4FE5246804689465B46504659464D
:105E900001F082F802460B4643EC1A2B6F4B0022AE
:105EA00000F0C4FE42464B4600F0C0FE00240D4602
:105EB00022462B465046594601F06EF8674B824603
:105EC0008B4600222046294600F0AEFE53EC1A2BEA
:105ED00000F0AAFE02460B464046494600F0A4FEEA
:105EE00053EC182B01F058F822462B4604460D4679
:105EF00051EC190B01F050F802460B46204629469A
:105F000000F094FE8046894642464B46504659462C
:105F100000F08CFE44A3D3E90023002004460D4684
:105F200001F03AF8524641EC190B5B4620462946EF
:105F300000F07AFE02460B464046494600F074FEE9
:105F40003BA3D3E9002301F027F802460B46204685
:105F5000294614461D4638A3D3E9002301F01CF856
:105F600002460B462046294600F060FE53EC1D2BEE
:105F700000F05CFE80460598894600F0A3FF42468B
:105F800082468B464B4651EC190B00F04FFE53EC0A
:105F90001C2B00F04BFE52465B4600F047FE52467B
:105FA0005B46002004460D4600F03EFE53EC1C2BE1
:105FB00000F03AFE53EC192B00F036FE02460B4679
:105FC0004046494600F030FE009B049A013B1343D3
:105FD00082468B4640F0B6819FED197BB0EE478A32
:105FE000F0EE678A3CE000BF000000000000F03FD8
:105FF0000000000000000000EF4E454A287ECA3F26
:1060000065DBC9934A86CD3F01411DA96074D13F2C
:106010004D268F515555D53FFFAB6FDBB66DDB3F3E
:10602000033333333333E33F000000E009C7EE3F6F
:10603000FD033ADC09C7EE3FF5015B14E02F3EBEDD
:10604000000000000000F0BF0000F07F00004043AF
:106050008E98030079B60B000000F03F0000084066
:106060000023CDE900670093DDE900893046424610
:106070004B46394600F0D8FD22462B4600F08CFFF7
:1060800032463B4606460F465046594600F084FFCE
:1060900002460B463046394600F0C8FD42464B46A4
:1060A00006460F462046294600F076FF04460D4678
:1060B0002B4630463946224600F0B8FDC24B994285
:1060C000804689468A4640F3188101F13F4303F533
:1060D000E003034340F00782A3A3D3E90023304643
:1060E000394600F0A3FD02460B464046494690461D
:1060F000994622462B4600F097FD02460B46404645
:10610000494601F0D9F9002840F0ED81CAF30A535D
:106110004FF48012A3F2FE3342FA03F35344AB4927
:10612000C3F30A52A2F2FF3241FA02FCC3F3130195
:1061300041F48011C2F1140241FA02F2002023EA74
:106140000C01BAF1000F00920B46024602DA0099E8
:10615000494200912046294600F066FD009B1B0540
:10616000029302460B4604460D463046394600F07F
:106170005DFD89464FF000087DA3D3E9002340462A
:10618000494600F009FF22462B4682468B46404690
:10619000494600F049FD02460B463046394600F0BC
:1061A00043FD75A3D3E9002300F0F6FE74A3D3E901
:1061B000002304460D464046494600F0EDFE0246E7
:1061C0000B462046294600F031FD06460F46324672
:1061D0003B465046594600F029FD52465B46044670
:1061E0000D4600F021FD02460B463046394600F0D0
:1061F0001BFD2246804689462B462046294600F054
:10620000CBFE61A3D3E9002306460F4600F0C4FE8F
:106210005FA3D3E9002300F007FD32463B4600F0C0
:10622000BBFE5DA3D3E9002300F000FD32463B46F0
:1062300000F0B2FE5AA3D3E9002300F0F5FC324689
:106240003B4600F0A9FE58A3D3E9002300F0EEFC82
:1062500032463B4600F0A0FE02460B462046294649
:1062600000F0E2FC06460F4632463B4620462946F1
:1062700000F092FE02460B463046394616461F464F
:1062800000224FF0804300F0CFFC02460B46304620
:10629000394600F0ABFF424606460F464B462046C5
:1062A000294600F079FE42464B4600F0BFFC02460C
:1062B0000B463046394600F0B7FC22462B4600F02C
:1062C000B3FC02460B460020414900F0ADFC029AA7
:1062D0000B461344B3F5801FC0F24381194653ECBB
:1062E000182B00F059FE41EC100B2DE4BBF1000F10
:1062F000FFF6A0AC9FED2E0B26E4DFF8DCC021F00A
:106300000043634540F3E780324B0B4403430AD11B
:1063100022462B4600F088FC32463B4601F0C2F88C
:1063200000283FF4F3AE24A3D3E9002351EC180B6B
:1063300000F032FE20A3D3E9002300F02DFE41EC53
:10634000100B01E49FED1E7BB0EE478AF0EE678AEA
:1063500086E6BBF1000FCDDA07F1004300EE106ACC
:1063600000EE903AFFF7F0BBFE822B654715973C95
:1063700000000000432EE63FEF39FAFE422EE63FD2
:10638000396CA80C615C20BED0A4BE726937663E31
:10639000F16BD2C541BDBB3E2CDE25AF6A56113F25
:1063A00093BDBE166CC1663F3E5555555555C53F0C
:1063B000000000000000000059F3F8C21F6EA501A4
:1063C000000000000000F03FFFFF8F40FFFF0F00C4
:1063D0000000F03F00346F3FFFCB9040984585DBD5
:1063E0007D4B98453FF722AC51EC100B7A4B0022C5
:1063F00000F01AFC68A3D3E9002304460D4600F020
:10640000CBFD67A3D3E9002382468B46204629466D
:1064100000F0C2FD714B41EC180B002220462946CA
:1064200000F0BAFD02460B465FA1D1E9000100F081
:10643000FBFB22462B4600F0AFFD02460B46002038
:10644000674900F0F1FB2246804689462B462046EC
:10645000294600F0A1FD02460B464046494600F0A1
:106460009BFD53A3D3E9002300F096FD02460B46A3
:1064700051EC180B00F0D8FB8046894642464B464B
:106480005046594600F0D2FB002052465B46044677
:106490000D4691E522462B462046294600F07CFD1C
:1064A00041EC100BFFF750BB4B49002022462B4616
:1064B00000F09CFE41EC100BFFF746BB002B44D1D3
:1064C000C1F114014AFA01F000FA01F151455AD024
:1064D0000093FFF717BB424A93425BDCDDE90012F1
:1064E0000291009146E634A3D3E9002351EC180B46
:1064F00000F052FD30A3D3E9002300F04DFD41EC44
:10650000100BFFF721BB009B012B7FF41DAB10EE9E
:10651000901A10EE102A01F1004343EC102BFFF704
:1065200013BB9FED277BB0EE47CAF0EE67CA9FED25
:10653000267BB0EE47DAF0EE67DA9FED257B4FF46D
:10654000802553EC172BFFF7EBBB45EC104B00926B
:1065500000F014FA009A002A7FF492AB0092FFF741
:1065600026BB41EC100B009800F0C2FA51EC100B66
:10657000B5E600F00100C0F102010091002B3FF4EC
:10658000C1AAFFF70DBB00F00100C0F102030093A8
:10659000FFF7B8BA1B15BBE5000000604715F73FD1
:1065A00044DF5DF80BAE543E555555555555D53F16
:1065B000FE822B654715F73F9C7500883CE4377ECB
:1065C0000000004003B8E23F06D0CF43EBFD4C3E55
:1065D000000000000000F83F0000F03F0000D03F46
:1065E0000000E03F2DE9F041634A55EC104BAA430F
:1065F00000F09F80002D10EE10CA2B4654DD2915A7
:1066000063D0C3F31303A1F2FF37C90743F4801328
:1066100004D45B0003EBDC734FEA4C0C4FEADC72F2
:10662000002602EB43037F104FEA4C0C4FF0160E8E
:1066300034464FF40012A118994202DC5B1A8C1800
:1066400016445B00BEF1010E03EBDC734FEA52020D
:106650004FEA4C0CEFD1754620204FF000420AE083
:1066600044D04FEADC71013801EB43034FEA4C0C94
:106670004FEA520243D0A34202EB0E01F0DD0029A3
:1066800001EB020E0ADBA0461B1B614588BF03F12C
:10669000FF33ACEB010C15444446E2E7BEF1000FBA
:1066A000F1DB04F10108EFE725F00042224338D086
:1066B000002D4ED129464FEADC22153913464FEA08
:1066C0004C5C002AF7D0D60250D400205B00DD02DB
:1066D000044600F10100F9D51A4663460CFA00FCA5
:1066E000C0F12000C340091B13438AE76145B8D8B5
:1066F000002901EB020ED1DB98460023C9E753EADB
:106700000C0310D168087110F30701F17F5101F5F6
:10671000001148BF40F0004001EB0753024643EC34
:10672000102BBDE8F0816A1C16BF681C01364008BA
:10673000E9E710EE102A10EE100A2B46294600F069
:106740002BFC22462B4600F071FA41EC100BBDE801
:10675000F08110EE102A2046294600F065FA024624
:106760000B4600F043FD41EC100BDAE763462020B6
:106770004FF0FF34B6E700BF0000F07F10EE103A94
:1067800033F000422ED0002B33DBB3F1FF4F40DA61
:10679000B3F5000F34DB4FF0000C6848C3F316016B
:1067A000084400F4000282F07E520A43DB1500EE3A
:1067B000102A7F3B624A634401F10F0CF7EE007A26
:1067C0000CEA020230EE670A03EBD05322BBB5EEAF
:1067D000400AF1EE10FA60D1002B40F092809FED5C
:1067E000590A70479FED587ADFED567A87EE270AEF
:1067F000704770EE407A9FED537A87EE870A7047B4
:10680000DFED527A60EE277A6FF0180C17EE903AAF
:10681000C3E730EE000A7047F0EE007A70EE277A98
:1068200007EE103A80EE274A4948C1F5571208444E
:1068300002F522720243002A9FED463ADFED464AF6
:10684000DFED465ADFED463A9FED465ADFED467AD8
:10685000DFED466A24EE046AF8EEC72A26EE067AD1
:10686000E7EE034AA7EE235AE4EE875AE5EE076AFD
:10687000E5EE877A67EE867AE6EE877A2ADDB6EE6F
:10688000007A20EE077A27EE007A4BBB77EE877A04
:10689000A7EEC47A30EE470A7047B6EE007ADFED15
:1068A000346AF0EE477AE0EE667A20EE007A27EE60
:1068B000277A002BEED007EE903A9FED2E6ADFED9F
:1068C0002E6AF8EEE77AA7EEC67A37EE400A97EE20
:1068D000A60A704713BB70EE677AA7EEC40A70472A
:1068E000DFED246A9FED246A77EE877A62EEA66A6E
:1068F000E7EE846A37EE667A37EE400A92EE860A51
:10690000704707EE903A9FED1B0A9FED1B7AF8EE59
:10691000E77A27EE800AA7EE870A70479FED157A7F
:10692000DFED156A70EE677A27EE627AA7EE847A59
:1069300037EE400A92EEA60A704700BF20FB4A00DD
:10694000F0FF7F0000000000000000CC0000004CC1
:10695000305CCFFF9788173E25333A3E2549923E5B
:106960004FD01C3E298E633EABAA2A3FCDCCCC3EF5
:10697000ABAAAA3ED1F717378071313F51EC100B0B
:1069800010EE102A21F0004343EC102B704700BF9B
:1069900082B08DED000B019840F0004000F58010B2
:1069A000C00F02B0704700BF9FED010B704700BFE2
:1069B000000000000000F87FF0B553EC102BC3F38B
:1069C0000A5CACF2FF31132910EE100A83B01C46AA
:1069D0004FEAD37E3ADC002930DB424D45FA01FC18
:1069E00003EA0C0515432DD003EA5C0318434FEA74
:1069F0005C0C0CD024EA0C0C4FF48024132944FACC
:106A000001F10CBF4FF0004000204CEA0104364970
:106A100001EBCE0E2346DEE900450246294620461C
:106A200000F004F9CDE90001DDE9000122462B4622
:106A300000F0FAF841EC100B03B0F0BD23F0004178
:106A4000114324D143EC102B03B0F0BD332908DDF2
:106A5000B1F5806FF6D1194600F0E8F841EC100B63
:106A6000F2E7ACF2134C4FF0FF3121FA0CF10A427D
:106A7000E8D010EA51024FEA5103C8D020EA0303DC
:106A80004FF0804040FA0CFC43EA0C00BFE7C3F330
:106A900013031843144A4342034302EBCE0E1B0B6D
:106AA000620C03F40023520443EA02073B46DEE98A
:106AB000006710EE102A3046394600F0B7F8CDE9ED
:106AC000000132463B46DDE9000100F0ADF804F07C
:106AD000004421F00041024641EA040343EC102B3C
:106AE00003B0F0BDFFFF0F0098790B00000000001D
:106AF00038B553EC102BC3F30A5104469C4689BBAE
:106B000010EE101A23F0004C5CEA010129D019465E
:106B100000223D4B3D4D10EE100A00F03DFAAC4214
:106B200002460B4616DB8C46C1F30A513639214426
:106B300040F2FE70814221DC002947DC11F1350F63
:106B400034DA4CF250318C4218DC002B26A1D1E90A
:106B5000000144DB24A3D3E9002300F01DFA41EC3B
:106B6000100B38BD40F2FF708142E0D110EE100AE8
:106B7000194600F05BF841EC100B38BD002B1CA14E
:106B8000D1E9000107DB1AA3D3E9002300F004FADE
:106B900041EC100B38BD18A1D1E9000114A3D3E9D1
:106BA000002300F0F9F941EC100BF3E72CF0FF4C57
:106BB0002CF4E00C36314CEA015310461946002201
:106BC000134B00F0E9F941EC100B38BD2CF0FF4CF1
:106BD0002CF4E00C4CEA015343EC102B38BD08A117
:106BE000D1E90001B6E700BF59F3F8C21F6EA50155
:106BF0009C7500883CE4377E9C7500883CE437FE39
:106C000059F3F8C21F6EA58100005043B03CFFFF4E
:106C10000000903C9FED010A704700BF0000C07F5C
:106C200081F0004102E000BF83F0004330B54FEA3D
:106C300041044FEA430594EA050F08BF90EA020FAA
:106C40001FBF54EA000C55EA020C7FEA645C7FEA3D
:106C5000655C00F0E2804FEA5454D4EB5555B8BF60
:106C60006D420CDD2C4480EA020281EA030382EAD1
:106C7000000083EA010180EA020281EA0303362D63
:106C800088BF30BD11F0004F4FEA01314FF4801C36
:106C90004CEA113102D0404261EB410113F0004F48
:106CA0004FEA03334CEA133302D0524263EB4303FF
:106CB00094EA050F00F0A780A4F10104D5F1200E9D
:106CC0000DDB02FA0EFC22FA05F2801841F10001F8
:106CD00003FA0EF2801843FA05F359410EE0A5F1CC
:106CE00020050EF1200E012A03FA0EFC28BF4CF0FD
:106CF000020C43FA05F3C01851EBE37101F00045B3
:106D000007D54FF0000EDCF1000C7EEB00006EEBBF
:106D10000101B1F5801F1BD3B1F5001F0CD3490849
:106D20005FEA30004FEA3C0C04F101044FEA4452A0
:106D300012F5800F80F09A80BCF1004F08BF5FEA27
:106D4000500C50F1000041EB045141EA050130BD07
:106D50005FEA4C0C404141EB0101013C28BFB1F519
:106D6000801FE9D291F0000F04BF01460020B1FA64
:106D700081F308BF2033A3F10B03B3F120020CDA37
:106D80000C3208DD02F1140CC2F10C0201FA0CF015
:106D900021FA02F10CE002F11402D8BFC2F1200C7A
:106DA00001FA02F120FA0CFCDCBF41EA0C01904030
:106DB000E41AA2BF01EB0451294330BD6FEA040479
:106DC0001F3C1CDA0C340EDC04F11404C4F1200264
:106DD00020FA04F001FA02F340EA030021FA04F376
:106DE00045EA030130BDC4F10C04C4F1200220FACD
:106DF00002F001FA04F340EA0300294630BD21FA0B
:106E000004F0294630BD94F0000F83F4801306BFD0
:106E100081F480110134013D4EE77FEA645C18BFC4
:106E20007FEA655C29D094EA050F08BF90EA020F5B
:106E300005D054EA000C04BF1946104630BD91EA53
:106E4000030F1EBF0021002030BD5FEA545C05D156
:106E50004000494128BF41F0004130BD14F5800495
:106E60003CBF01F5801130BD01F0004545F0FE4109
:106E700041F470014FF0000030BD7FEA645C1ABF3E
:106E8000194610467FEA655C1CBF0B46024650EA75
:106E9000013406BF52EA033591EA030F41F40021A1
:106EA00030BD00BF90F0000F04BF0021704730B527
:106EB0004FF4806404F132044FF000054FF00001FC
:106EC00050E700BF90F0000F04BF0021704730B5BD
:106ED0004FF4806404F1320410F0004548BF404292
:106EE0004FF000013EE700BF42004FEAE2014FEAE7
:106EF00031014FEA02701FBF12F07F4393F07F4FC2
:106F000081F06051704732F07F4208BF704793F0C4
:106F10007F4F04BF41F40021704730B54FF46074D7
:106F200001F0004521F000411CE700BF50EA0102DA
:106F300008BF704730B54FF000050AE050EA010283
:106F400008BF704730B511F0004502D5404261EBF3
:106F500041014FF4806404F132045FEA915C3FF434
:106F6000D8AE4FF003025FEADC0C18BF03325FEAD1
:106F7000DC0C18BF033202EBDC02C2F1200300FA82
:106F800003FC20FA02F001FA03FE40EA0E0021FAA7
:106F900002F11444BDE600BF70B54FF0FF0C4CF495
:106FA000E06C1CEA11541DBF1CEA135594EA0C0F47
:106FB00095EA0C0F00F0DEF82C4481EA030621EA82
:106FC0004C5123EA4C5350EA013518BF52EA0335BD
:106FD00041F4801143F4801338D0A0FB02CE4FF06F
:106FE0000005E1FB02E506F00042E0FB03E54FF09F
:106FF0000006E1FB03569CF0000F18BF4EF0010E97
:10700000A4F1FF04B6F5007F64F5407404D25FEA92
:107010004E0E6D4146EB060642EAC62141EA555145
:107020004FEAC52040EA5E504FEACE2EB4F1FD0C87
:1070300088BFBCF5E06F1ED8BEF1004F08BF5FEA05
:10704000500E50F1000041EB045170BD06F00046B7
:1070500046EA010140EA020081EA0301B4EB5C0464
:10706000C2BFD4EB0C0541EA045170BD41F480115C
:107070004FF0000E013C00F3AB8014F1360FDEBF81
:10708000002001F0004170BDC4F10004203C35DA5D
:107090000C341BDC04F11404C4F1200500FA05F3E0
:1070A00020FA04F001FA05F240EA020001F0004281
:1070B00021F0004110EBD37021FA04F642EB0601F7
:1070C0005EEA430E08BF20EAD37070BDC4F10C0421
:1070D000C4F1200500FA04F320FA05F001FA04F2E5
:1070E00040EA020001F0004110EBD37041F10001D1
:1070F0005EEA430E08BF20EAD37070BDC4F12005DC
:1071000000FA05F24EEA020E20FA04F301FA05F243
:1071100043EA020321FA04F001F0004121FA04F2EB
:1071200020EA020000EBD3705EEA430E08BF20EABB
:10713000D37070BD94F0000F0FD101F000464000F5
:1071400041EB010111F4801F08BF013CF7D041EA77
:10715000060195F0000F18BF704703F0004652007B
:1071600043EB030313F4801F08BF013DF7D043EA4C
:107170000603704794EA0C0F0CEA135518BF95EA02
:107180000C0F0CD050EA410618BF52EA4306D1D189
:1071900081EA030101F000414FF0000070BD50EAA8
:1071A000410606BF1046194652EA430619D094EA32
:1071B0000C0F02D150EA013613D195EA0C0F05D11C
:1071C00052EA03361CBF104619460AD181EA030170
:1071D00001F0004141F0FE4141F470014FF0000028
:1071E00070BD41F0FE4141F4780170BD70B54FF0C3
:1071F000FF0C4CF4E06C1CEA11541DBF1CEA135543
:1072000094EA0C0F95EA0C0F00F0A7F8A4EB050424
:1072100081EA030E52EA03354FEA013100F088801B
:107220004FEA03334FF0805545EA131343EA1263E4
:107230004FEA022245EA111545EA10654FEA002699
:107240000EF000419D4208BF964244F1FD0404F552
:10725000407402D25B084FEA3202B61A65EB0305AE
:107260005B084FEA32024FF480104FF4002CB6EB6B
:10727000020E75EB030E22BFB61A754640EA0C00EB
:107280005B084FEA3202B6EB020E75EB030E22BF2B
:10729000B61A754640EA5C005B084FEA3202B6EB6C
:1072A000020E75EB030E22BFB61A754640EA9C002B
:1072B0005B084FEA3202B6EB020E75EB030E22BFFB
:1072C000B61A754640EADC0055EA060E18D04FEAB9
:1072D000051545EA16754FEA06164FEAC30343EA59
:1072E00052734FEAC2025FEA1C1CC0D111F4801F26
:1072F0000BD141EA00014FF000004FF0004CB6E71F
:1073000011F4801F04BF01430020B4F1FD0C88BFBD
:10731000BCF5E06F3FF6AFAEB5EB030C04BFB6EBC8
:10732000020C5FEA500C50F1000041EB045170BDBB
:107330000EF0004E4EEA113114EB5C04C2BFD4EBE8
:107340000C0541EA045170BD41F480114FF0000E6C
:10735000013C90E645EA060E8DE60CEA135594EAE8
:107360000C0F08BF95EA0C0F3FF43BAF94EA0C0FEB
:107370000AD150EA01347FF434AF95EA0C0F7FF460
:1073800025AF104619462CE795EA0C0F06D152EAB4
:1073900003353FF4FDAE1046194622E750EA410698
:1073A00018BF52EA43067FF4C5AE50EA41047FF4A9
:1073B0000DAF52EA43057FF4EBAE12E74FF0FF3C0E
:1073C00006E000BF4FF0010C02E000BF4FF0010CDF
:1073D0004DF804CD4FEA410C7FEA6C5C4FEA430C58
:1073E00018BF7FEA6C5C1BD001B050EA410C0CBFA7
:1073F00052EA430C91EA030F02BF90EA020F002009
:10740000704710F1000F91EA030F58BF994208BF6F
:1074100090422CBFD8176FEAE37040F0010070472C
:107420004FEA410C7FEA6C5C02D150EA013C07D183
:107430004FEA430C7FEA6C5CD6D152EA033CD3D0CE
:107440005DF8040B704700BF8446104662468C46C8
:107450001946634600E000BF01B5FFF7B7FF0028FB
:1074600048BF10F1000F01BD4DF808EDFFF7F4FF24
:107470000CBF012000205DF808FB00BF4DF808EDAF
:10748000FFF7EAFF34BF012000205DF808FB00BFD2
:107490004DF808EDFFF7E0FF94BF012000205DF8F4
:1074A00008FB00BF4DF808EDFFF7CEFF94BF0120A9
:1074B00000205DF808FB00BF4DF808EDFFF7C4FFA2
:1074C00034BF012000205DF808FB00BF4FEA410CEB
:1074D0007FEA6C5C02D150EA013C0AD14FEA430CCE
:1074E0007FEA6C5C02D152EA033C02D14FF000000B
:1074F00070474FF0010070474FEA410212F5001249
:1075000015D211D56FF47873B3EB625212D94FEAEA
:10751000C12343F0004343EA505311F0004F23FAD4
:1075200002F018BF404270474FF00000704750EA29
:10753000013005D111F0004008BF6FF000407047E6
:107540004FF00000704700BF4A0011D212F5001240
:1075500011D20DD56FF47873B3EB62520ED44FEAAB
:10756000C12343F0004343EA505323FA02F070472B
:107570004FF00000704750EA013002D14FF0FF3069
:1075800070474FF0000070474FEA4102B2F1E0430C
:1075900024BFB3F5001CDCF1FE5C0DD901F0004CFA
:1075A0004FEAC0024CEA5070B2F1004F40EB83004A
:1075B00008BF20F00100704711F0804F21D113F176
:1075C0003872BCBF01F00040704741F480114FEAAF
:1075D0005252C2F11802C2F1200C10FA0CF320FA38
:1075E00002F018BF40F001004FEAC1234FEAD32355
:1075F00003FA0CFC40EA0C0023FA02F34FEA4303BF
:10760000CCE77FEA625307D150EA01331EBF4FF047
:10761000FE4040F44000704701F0004040F0FE4062
:1076200040F40000704700BF002301461A46184688
:1076300000F04CB80A44914200F1FF3300D170478A
:1076400010B511F8014B03F8014F9142F9D110BD6B
:1076500002440346934200D1704703F8011BF9E747
:1076600038B5104B1D68AB6B0446B3B91820FDF755
:1076700041FB0246A86320B90B4B0C484221FDF7A1
:1076800051FB0B490B4BC0E900130B4B83600B23E1
:10769000838100210120C2E90401AB6B00221C613F
:1076A0005A6138BD34E60320A8790B00BF790B007E
:1076B0000E33CDAB34126DE6ECDE0500034613F855
:1076C000012B002AFBD1181A013870472DE9F84325
:1076D000DFF8B8800646D8F800001F460D469146F0
:1076E00000F056F8254B1C6834B9254C1C60254B1E
:1076F00013B11B68C4F8883063681F2B07DDD8F806
:10770000000000F047F84FF0FF30BDE8F8834EB3BB
:10771000D4F8880088B91C4B23B9D8F8000000F0D1
:1077200038F8F0E74FF48470FDF7E4FA0028F4D05D
:107730000023C0E94033C4F88800636840F8239010
:1077400001229A4000EB8301D0F800311343C0F8C6
:107750000031022EC1F8807002BFD0F8043113430B
:10776000C0F804316368D8F800005A1C0233626024
:1077700044F8235000F00EF80020C6E7E8E70320A5
:107780005CE7032000000000F54C0B0098E60320A6
:10779000704770477047000021400B005D400B00B0
:1077A00085400B0089400B000000000044485478DD
:1077B00078207465737421004661696C6564207477
:1077C0006F20726561642066726F6D20444854209A
:1077D00073656E736F72210048756D656461643AFC
:1077E000200054656D70657261747572613A200095
:1077F0004865617420696E6465783A200044657755
:1078000020506F696E743A200000000000000000F4
:1078100000000000A34D0B00994D0B008F4D0B0095
:10782000854D0B00794D0B006D4D0B00E1550B00A4
:10783000E9550B00614D0B00594D0B004F4D0B00EE
:10784000454D0B0019560B006E616E00696E6600A7
:107850006F7666002E006170700025592D256D2D04
:1078600025645425483A254D3A2553257A006173FD
:107870006374696D650000000000000000000000F6
:1078800021520B0011520B0013520B00000000009C
:107890000000000007530B006F530B0045530B0013
:1078A000094E0B0037530B0009530B0019530B0003
:1078B00069530B0029530B0001530B00000000001B
:1078C0000000000011540B007D540B0055540B00B8
:1078D000094E0B0025540B0041540B0033540B0090
:1078E0004F540B0013540B0017540B000000000002
:1078F00000000000B5540B00FF540B00D7540B00E0
:10790000B7540B00DF540B00E7540B00EF540B008F
:10791000F7540B00000000000000000083550B002E
:1079200079550B006F550B0031550B0095500B002E
:1079300063550B00E1550B00E9550B0057550B0043
:107940004F550B0045550B003B550B0019560B00CE
:107950000000000000000000A1550B00AB550B001B
:10796000B5550B00BF550B00C9550B00D5550B0085
:10797000E1550B00E9550B00F1550B00FD550B00CF
:1079800005560B000F560B0019560B0000000000A7
:107990000000000000000000000000000000304374
:1079A00000000000000030C35245454E54206D6178
:1079B0006C6C6F6320737563636565646564002F29
:1079C0006D6E742F776F726B73706163652F776F55
:1079D000726B73706163652F4743432D31302D7097
:1079E0006970656C696E652F6A656E6B696E732D63
:1079F0004743432D31302D706970656C696E652D7C
:107A000034385F32303230313132345F31363036F3
:107A10003138303634312F7372632F6E65776C696D
:107A2000622F6E65776C69622F6C6962632F737465
:107A3000646C69622F72616E642E6300B1410B0049
:107A4000AD4D0B00D54D0B00F94D0B00A1500B00B7
:107A5000B1500B00CD500B008D550B00F1560B00B3
:047A60000000000022
:107A64006E780B00FF00000038E6032000000000E1
:107A74000000000000000000000000000000000002
:107A840000000000000000000000000000000000F2
:107A940000000000000000000000000000000000E2
:107AA40000000000000000000000000000000000D2
:107AB40000000000000000000000000000000000C2
:107AC400000000000000000000000000ECE70320BC
:107AD400FFFFFFFF00000102030405060708090A6F
:107AE4000B0C0D0E0F101112131415161718191A6A
:087AF4001B1C1D1E1F202800B1
:047AFC007856341272
:04000003B0004020E9
:00000001FF
