:02000004080AE8
:1000000000000A089C3A0A080000060006000501E4
:080010000402FD0800000000DD
:0400180008380A0892
:1000200009480A4908B5884205D0094A824202D0E7
:10003000121A03F03FFB0748074A0021121A03F087
:1000400047FB064808BD00BF00000020043A0A082C
:1000500070000020700000202906002029060020E2
:1000600070B500F005FF0025054E064CA41BA40842
:10007000A54200D170BD56F8043B98470135F7E71B
:10008000E0390A08003A0A0800F014B808B500F090
:10009000C1F8BDE8084000F0A3BE00F0CBBC00F002
:1000A000D1BC0078B0FA80F040097047012303709A
:1000B0007047000008B500F0DDFF4FF4165100F066
:1000C000BFFF00F0D7FF044900F02FFDBDE8084056
:1000D000024800F013B900BF1C380A087000002065
:1000E000F8B5294D294F284600F0F4FA0446284671
:1000F00000F0C6FA054600F0BDFF254900F002FDFC
:1001000000F0B8FF06460A22002100F018FD304634
:1001100000F0FFFC00F0AEFF1E4900F0F3FC00F021
:10012000A9FF0222214600F0F5FD00F0A3FF1A49C5
:1001300000F0E8FC00F09EFF0222294600F0EAFDF4
:1001400000F098FF394600F0DDFC00F093FF00213D
:100150000646284603F050F802220146304600F0D9
:10016000D9FD00F087FF394600F0CCFC00F082FF9B
:1001700000210546204603F03FF8022201462846AA
:10018000BDE8F84000F0C6BD8400002056380A08DB
:1001900031380A083E380A0848380A0838B50121BB
:1001A000184800F089F8044600F064FF164900F092
:1001B000A9FC00F05FFF05460A22002100F0BFFC09
:1001C000284600F0A6FC00F055FF104900F09AFC0C
:1001D00000F050FF0222214600F09CFD00F04AFF93
:1001E0000B4900F08FFC00F045FF0021054620463A
:1001F00003F002F8022201462846BDE8384000F02C
:1002000089BD00BFA40000206D380A087A380A08AA
:1002100056380A0808B5FFF763FFFFF7BFFFBDE8D0
:10022000084041F2883000F09BBD000038B50B4C0F
:100230000B4D06230B220821204600F057F80FCC67
:100240000FC52368074C0F2120462B6000F00EF8E5
:1002500094E80700044B83E8070038BD70000020D5
:100260008400002098000020A40000204FF08B4262
:100270004260024A01608260704700BF0000A040F7
:1002800070B50C460546012000F06AFD74B1642685
:100290000024288801F027F90444012000F060FDC3
:1002A000013EF6D1642094FBF0F070BD2888BDE8D3
:1002B000704001F018B9000010B50446FFF7E0FFE8
:1002C00003F04EF8A16803F09FF8616803F050F95D
:1002D00002F0ECFB02460B460020034901F06AF9EC
:1002E00002F034FF10BD00BF000024400372012360
:1002F00010B58171C271037410BD00002DE9F04189
:1003000005461A4C0021807901F0DCF8AE7923789B
:10031000174F13F0010FBFF35B8F09D12046FFF792
:10032000C0FE28B100F0D8F938602046FFF7BEFEC5
:100330001C235E433B6803EB06082378BFF35B8F07
:10034000DB0709D40948FFF7ACFE28B100F0C4F977
:1003500038600648FFF7AAFE3B68B8F804209B59AE
:100360001A830023EB60BDE8F08100BFB0000020DD
:10037000B40000202DE9F74F044600F0EDF9E368E2
:10038000834284BF0023E360237C2BB9E368C01A57
:10039000B0F5FA6FC0F03E810025257400F0DCF95D
:1003A0009E4E25602571E060A77933789C4D13F04F
:1003B000010FBFF35B8F09D13046FFF772FE28B102
:1003C00000F08AF928603046FFF770FE1C235F4377
:1003D0002B6803EB07083378BFF35B8FD90709D489
:1003E0008E48FFF75EFE28B100F076F928608B4852
:1003F000FFF75CFE2B68B8F80420DB59FA201A835B
:1004000000F0AEFC0121A07901F05CF8A779337807
:10041000BFF35B8FDA0709D48048FFF742FE28B1AB
:1004200000F05AF928607D48FFF740FE1C235F4327
:100430002B6803EB07083378BFF35B8FDB0709D426
:100440007648FFF72EFE28B100F046F92860734881
:10045000FFF72CFE2B68B8F80420DB5914205A83D0
:1004600000F07EFC00F064FEA7793378BFF35B8F69
:10047000D80709D46948FFF714FE28B100F02CF919
:1004800028606648FFF712FE1C235F432B6803EBCE
:1004900007083378BFF35B8FD90709D45F48FFF7AC
:1004A00000FE28B100F018F928605C48FFF7FEFD57
:1004B0002B68B8F80420DB5900271A83282000F0A5
:1004C00043F90021A07900F0FDFF0123BA46DFF8CF
:1004D0004C8100934FF0000994F806B03378BFF3D5
:1004E0005B8FDA0709D44046FFF7DBFD28B100F047
:1004F000F3F828604046FFF7D9FD1C2303FB0BFBF4
:100500002B6853F80B301B6901933378BFF35B8F73
:10051000DB0709D44046FFF7C4FD28B100F0DCF842
:1005200028604046FFF7C2FD2B68019A5B449B8818
:10053000134214BF01230023009A934209D109F109
:10054000010901205FFA89F900F0FEF8B9F1FF0F07
:10055000C2D194F806B03378BFF35B8FD80709D4C3
:100560004046FFF79EFD28B100F0B6F828604046EF
:10057000FFF79CFD1C2303FB0BFB2B6853F80B3090
:100580001B6900933378BFF35B8FD90709D44046CA
:10059000FFF787FD28B100F09FF828604046FFF77D
:1005A00085FD2B68009A5B449B88134214BF01238E
:1005B0000023B9F1FF0F009318D0032F11D9FA07C8
:1005C0000FD44FEADA02A35C0AF1010A5B00DBB246
:1005D000A354217A5FFA8AFA49453CBF43F00103EC
:1005E000A3540137FFB2552F7FF474AF00F0A2FD82
:1005F000BAF1270F10D9637820781844A3781844EB
:10060000E37818442379C0B2C31A5842584103B062
:10061000BDE8F08F0120FAE70020F8E7B0000020E5
:10062000B400002070B50446FFF7A4FE08B3E379D8
:100630000B2B1AD0153B012B1BD8A67806F07F0098
:1006400002F08EFE4FF0874102F0DEFE0546E078B4
:1006500002F086FE294602F0CFFD074902F088FF2E
:10066000330605D500F1004002E0A07802F074FEE8
:1006700070BD0248FCE700BF000020410000C07FC1
:10068000FFF7D0BF38B50446FFF774FED8B1E37961
:100690000B2B14D0153B012B15D8207802F05CFEF3
:1006A0004FF0874102F0B0FE0546607802F058FE38
:1006B000294602F0A1FD054902F05AFF38BD207815
:1006C00002F04AFEFAE70248F8E700BF00002041C6
:1006D0000000C07FFFF7D6BF08B5024B1B681B6840
:1006E000019308BDB001060808B5024B1B685B68A2
:1006F000019308BDB001060808B5024B1B689B6852
:10070000019308BDB001060808B5024B1B681B6ABF
:10071000019308BDB001060808B5024B1B685B6A6F
:10072000019308BDB001060808B5024B1B681B6B9E
:10073000019308BDB001060808B5024B1B685B6851
:10074000019308BD9C01060808B5024B1B68DB68D5
:10075000019308BD9C01060808B5024B1B685B6944
:10076000019308BD9C01060808B5024B1B685B6C31
:10077000019308BDD001060808B5024B1B689B6CAD
:10078000019308BDD001060808B5024B1B689B69A0
:10079000019308BDC401060808B5024B1B685B6ADB
:1007A000019308BDC401060808B5024B1B689B6A8B
:1007B000019308BDC401060808B5024B1B68DB6A3B
:1007C000019308BDC401060808B5024B1B681B6BEA
:1007D000019308BDC401060808B5024B1B685B6B9A
:1007E000019308BDC401060808B5024B1B689B6B4A
:1007F000019308BDC401060808B5024B1B681B6CB9
:10080000019308BDC401060808B5024B1B681B6EA6
:10081000019308BDAC01060808B5024B1B685B6E6E
:10082000019308BDAC01060808B5024B1B689B6E1E
:10083000019308BDAC01060808B5024B1B68DB6ECE
:10084000019308BDAC01060808B5024B1B681B6F7D
:10085000019308BDAC01060808B5024B1B685B6F2D
:10086000019308BDAC01060808B5034B1B68D3F81B
:100870008030019308BD0000AC01060808B5024BAA
:100880001B68DB69019308BDB401060808B5024B7B
:100890001B681B6A019308BDB401060808B5024B2A
:1008A0001B681B68019308BDD801060808B5024BF8
:1008B0001B685B68019308BDD801060808B5024BA8
:1008C0001B681B69019308BDD801060808B5024BD7
:1008D0001B685B69019308BDD801060808B5024B87
:1008E0001B689B69019308BDD801060808B5024B37
:1008F0001B68DB69019308BDD801060808B5024BE7
:100900001B681B6A019308BDD801060808B5024B95
:100910001B689B6C019308BDC001060808B5024B1B
:100920001B685B68019308BDA401060808B5024B6B
:100930001B685B69019308BDA401060808B5034B59
:100940001B68D3F89030019308BD0000A40106088D
:1009500008B5034B1B68D3F89C30019308BD000019
:10096000A401060808B5024B1B685B68019308BD2B
:10097000C801060808B5024B1B689B68019308BDB7
:10098000C801060808B5024B1B68DB68019308BD67
:10099000C801060808B5024B1B681B69019308BD16
:1009A000C801060808B5024B1B685B69019308BDC6
:1009B000C801060808B5024B1B689B69019308BD76
:1009C000C801060808B5024B1B68DB69019308BD26
:1009D000C801060808B5024B1B681B6A019308BDD5
:1009E000C801060808B5024B1B681B6B019308BDC4
:1009F000C801060808B5024B1B685B6B019308BD74
:100A0000C801060808B5024B1B681B6C019308BDA2
:100A1000C801060808B5024B1B685B6C019308BD52
:100A2000C801060808B5024B1B68DB6B019308BDC3
:100A3000CC01060808B5024B1B681B68019308BD72
:100A4000A001060808B5024B1B685B68019308BD4E
:100A5000A001060808B5024B1B68DB6B019308BDBB
:100A6000A001060808B5024B1B685B6C019308BD2A
:100A7000A001060870B5002604460D4640F8086F30
:100A8000FFF772FE28462570FFF7F8FE20466660E5
:100A900070BD000002220020044B1A60044B054A7E
:100AA0001860988098719A60FFF738BFC4000020E2
:100AB000B80000200000FFFFF8B506460D460024F0
:100AC0008F18BD420CD0336830469B6815F8011B67
:100AD0009847031E01DB1C44F3E7002C08BF1C46AB
:100AE0002046F8BD70B505460C46084649B102F0EF
:100AF0001BFE2B68024621462846BDE87040DB6895
:100B0000184770BD08B5FFF7EDFF08BD03689B6887
:100B1000184738B50D210546FFF7F8FF0A210446AE
:100B20002846FFF7F3FF204438BD38B50546FFF7E8
:100B3000D9FF04462846FFF7ECFF204438BD0023C8
:100B4000012A98BF0A2230B58BB00C468DF82430AC
:100B500009A92546B4FBF2F404FB1253DBB2092BBE
:100B600094BF30333733DBB2AA4201F8013DF0D9EC
:100B7000FFF7B8FF0BB030BD2DE9F74F054619461A
:100B8000104692461F469DF8306002F081FA40B14F
:100B900050492846FFF7A6FF0446204603B0BDE8AB
:100BA000F08F27F000444FF0FF32504621464A4B69
:100BB00002F06EFA48B94FF0FF3250462146464BDC
:100BC00002F048FA08B94549E3E74FF06042504661
:100BD0003946434B02F052FA08B14249D9E74FF087
:100BE000604250463946404B02F02AFA0028F4D1C0
:100BF000002200235046394602F022FA044630B162
:100C00002D212846FFF782FF044607F100474FF0E9
:100C1000000B00204FF000083449DFF8D8905FFA4D
:100C20008BF39E4206D942464B4602F0C1F80BF1C7
:100C3000010BF4E73B46524601F0DAFD8946804657
:100C400002F064FA074601F00FFF02460B464046E9
:100C5000494601F0CBFD0A2280468946284639469E
:100C6000FFF76DFF044426B128462149FFF73AFFFC
:100C700004444FF0000ADFF87CB0013EF6B2FF2ECC
:100C80008BD052465B464046494601F067FF80469E
:100C9000894602F013FA071E19DA2D212846FFF7BC
:100CA00035FF034679420A2228460193FFF747FFA2
:100CB000019B034438461C4401F0E6FE02460B4605
:100CC0004046494601F092FD80468946D5E73946BF
:100CD0000023E8E780380A08FFFFEF7F84380A081E
:100CE000FFFFEF4188380A08FFFFEFC10000E03F37
:100CF0008C380A080000244037B59DF818100546C6
:100D00000091FFF739FF04462846FFF702FF204411
:100D100003B030BD37B504460846154601F0C6FE9F
:100D2000009502460B462046FFF7E6FF03B030BDB4
:100D3000002340681A461946FFF734BE014B024AA9
:100D40001A607047C80000208E380A08024B1A68E3
:100D5000024B1A60704700BF00000020CC0000204A
:100D60000021FFF7E3BD00000022014B9A607047AD
:100D7000D0000020014B1860704700BF0800002021
:100D800008B5134B43B100F075F903681B69984728
:100D9000002801DDAFF300800E4B43B100F01EFAD6
:100DA00003681B699847002801DDAFF300800A4BF8
:100DB0000BB1AFF30080094B43B100F095F9036824
:100DC0001B699847002801DDAFF3008008BD00BF14
:100DD0000000000000000000000000000000000013
:100DE00008B5FFF7CDFFFFF7B7FC014B186008BD52
:100DF0005C0500200548064A08B5121A054902F0AC
:100E000059FC054B054A1A6008BD00BF004002406E
:100E100004400240003A0A08004002401E1C279A83
:100E2000002307B51A466FF077010093FFF790FD96
:100E300003B05DF804FB000007B543880A2B08D017
:100E4000502B0BD1094B1B684BB103B05DF804EB81
:100E50001847FFF7E5FF03B05DF804FB00231A46CF
:100E60006FF077010093FFF773FDF4E7E4000020D3
:100E7000002110B51148FFF7F5FD114B1A68114B11
:100E80009A420CBF012200220F4B1A7001D0FFF7CB
:100E9000B1FFFFF751FC044602F022FC0B4B13B1EB
:100EA0002046AFF3008000210848FFF7BBFDBDE8F6
:100EB000104000210648FFF741BD00BF750D0A082C
:100EC000004002401E1C279AE000002000000000A5
:100ED000390E0A08704710B50446182100F066FB69
:100EE000204610BDF8B50E46002400F10807051D88
:100EF00017F8011D0A223046FFF721FEAF420444D5
:100F000001D12046F8BD002CF2D02E213046FFF74B
:100F1000FDFD0444ECE7000010B50446044B11222B
:100F2000002140F8043B02F0D3FB204610BD00BF77
:100F3000B8380A080346074A10B543F8042B01F1F4
:100F4000100251F8044B914243F8044BF9D10A784E
:100F50001A7010BDB8380A08024AC0E900210422FC
:100F600002757047B8380A0810B59DF8084044EA81
:100F70000324042344EA024444EA01644460037500
:100F800010BD000037B5044D05609DF81850009560
:100F9000FFF7EAFF03B030BDB8380A084174704764
:100FA0007047704708B50021007CFFF797FC40EAC6
:100FB000E07008BD08B50121007CFFF78FFC40EA16
:100FC000E07008BD08B5007CFFF780FC20EAE07007
:100FD00008BD08B5007CFFF771FC20EAE07008BD91
:100FE00038B50446007C0D46FFF770FC002801DC94
:100FF000607C28B12946207CFFF778FC20EAE0706D
:1010000038BD007CFFF77ABC10B50446142100F00F
:10101000CDFA204610BD704710B54FF47A730446E0
:1010200008460021C4E90113044B20742360012306
:1010300011466374FFF732FC204610BDCC380A0815
:101040000022007CFFF732BC10B5044614220021B8
:1010500002F03EFB054B20466360054BE36040F227
:10106000011323818123238210BD00BF18010020BA
:101070001902002030B50E4D87B001A8FFF7E4FF3C
:101080002978BFF35B8F11F001040ED12846FFF7DA
:1010900008F850B1214601AA0648FFF7BDFF2846CF
:1010A000FFF704F8044802F0FFFA024807B030BD29
:1010B000E8000020F0000020A10F0A0810B5044647
:1010C0001422002102F004FB054B20466360054B0F
:1010D000E36040F2011323818123238210BD00BF0E
:1010E0009A0200209B03002010B50E4C86B001A888
:1010F000FFF7E4FF2378BFF35B8FDB070ED42046B6
:10110000FEF7CFFF50B1012101AA0748FFF784FF86
:101110002046FEF7CBFF054802F0C6FA024806B0AB
:1011200010BD00BFEC0000200401002017100A08C9
:10113000FFF7F2BAFFF7E8BA70474174704770479B
:1011400008B5007CFFF758FB20EAE07008BD08B541
:10115000007CFFF729FB20EAE07008BD08B5007CA1
:10116000FFF732FB40EAE07008BD08B5007CFFF7EE
:1011700023FB40EAE07008BD007CFFF72DBB70B593
:10118000467C04460D462EB12946207CBDE87040C1
:10119000FFF702BB007CFFF72FFB0028F4DC304692
:1011A00070BD10B50446142100F000FA204610BDB1
:1011B0004FF0000C10B50446084611464FF47A7201
:1011C000C4E901C2044A20742260012262741A46F2
:1011D000FFF7DAFA204610BDFC380A0838B50C4D86
:1011E0002978BFF35B8F11F001040FD12846FEF779
:1011F00058FF58B12146074B074A0848FFF7D8FF68
:101200002846FEF753FF064802F04EFA034838BD61
:101210001C040020A4040020200400202805002035
:101220003F110A087047F8B5064615460C468F1858
:10123000BC4206D0336830469B6814F8011B9847BF
:10124000F6E72846F8BD0022007CFFF7DDBA002152
:10125000007CFFF7E1BA0021007CFFF7E5BA00212E
:10126000007CFFF7E9BA0021007CFFF7EDBA10B56A
:101270000446142100F09AF9204610BD10B54FF431
:101280007A73044608460021C4E90113034B114652
:1012900023602074FFF7E8FA204610BD2C390A08B5
:1012A000002240681146FFF775BBF0B5154689B0BE
:1012B00011220E460446002103A802F009FA28462E
:1012C00002F032FA002781B273682846009703AA19
:1012D000FFF71CFB30B139462046FFF73DFE2046A4
:1012E00009B0F0BD204603A9FFF724FEF7E700226E
:1012F00040681146FFF76EBB002240681146FFF7B9
:1013000079BB00224068FFF76DBB0022406881F086
:101310000101FFF757BB002340681A461946FFF743
:1013200049BB002240681146FFF724BB002202217E
:101330004068FFF727BB002340681A46FFF712BB3F
:101340000422024B5A60024A1A6070473C05002092
:1013500054390A08002340681A46FFF703BB0022ED
:1013600002214068FFF70EBB002240681146FFF7DC
:1013700001BB002240681146FFF70CBB0023406808
:101380001A461946FFF70EBB002340681A46194655
:10139000FFF710BB00214068FFF734BB0021406815
:1013A000FFF738BB0022406881F00101FFF70ABB5C
:1013B00000224068FFF716BB002240681146FFF785
:1013C00019BB002240681146FFF704BB70B51546F3
:1013D0008EB0044608A8FFF79FFD1122002103A844
:1013E00002F076F90026284602F09EF90A4B009694
:1013F00081B25B68284603AAFFF788FA30B131460C
:101400002046FFF7A9FD20460EB070BD204603A977
:10141000FFF790FDF7E700BF3C050020024B034AB1
:101420001A6000225A6070474405002090390A086B
:10143000024B986808B1FFF79FB97047500500202C
:10144000172870B5044601D9002070BDA0F10D0326
:10145000022B0BD9012824D800F084F80021007C4D
:10146000FFF7FAF980F00100C0B2EEE7124E3178D2
:10147000BFF35B8F11F001050DD13046FEF711FE71
:1014800048B129460D48FFF7F5FA3046FEF70EFE43
:101490000B4802F009F9094B1878FFF7F7F9002813
:1014A000D2D1123C012C05D8FFF798FE007CFFF743
:1014B0009BF9D7E70120C8E74C0500205005002024
:1014C00031140A08172838B504460D460AD8FF29F2
:1014D00008D0FFF7B5FF28B129462046BDE83840BF
:1014E000FFF70AB938BD10B5044609289CBF0A3475
:1014F000A4B22046FFF7A4FF50B103212046FFF716
:10150000F3F8032804D12046BDE81040FFF70CB9DA
:10151000002010BD002307B51A4619460093034862
:10152000FFF730FD03B05DF804FB00BF600500204D
:1015300070470000002370B5202543801423084E17
:1015400004460380314685600561284600F030F886
:1015500031466060284600F02BF8E060204670BD00
:10156000C4390A0830B50E4D87B02978BFF35B8FB8
:1015700011F0010411D12846FEF793FD68B101A8CE
:10158000FFF7D8FF214601AA0648FFF777FE284655
:10159000FEF78CFD044802F087F8024807B030BD22
:1015A000780500207C05002031150A08FEF777BD7C
:1015B000FEF773BD2DE9F04F8FB01D4606460F466E
:1015C000144600F095F9A44BCDE9000193F9009081
:1015D000B9F1FF3F38D022462B462046294601F07C
:1015E00057FD834680BB32463B463046394601F0C4
:1015F0004FFD8046002840F0D9804FF0000A4FF0A0
:10160000000B3046394652465B4601F00FFD00B3F1
:1016100052465B462046294601F008FD039000280B
:1016200048D001228D4BCDE90667CDE90845CDE9CB
:101630000AABCDE90423CDF83080B9F1000F68D0B2
:101640000023874CCDE90034DDE900010FB0BDE88F
:10165000F08FDDE9000100F0ABFF8046002869D083
:10166000DDE900014FF000084FF0000942464B460B
:1016700001F0DCFC0028E7D03046394600F098FF46
:101680000028E1D02046294600F092FF0028DBD058
:1016900004200021704B714A93F90030CDE90667B0
:1016A000022BCDE90845CDE90A8904900C910592F9
:1016B00072D176E02046294600F07AFF0028C3D098
:1016C00052465B462046294601F0BAFC0028BBD0B2
:1016D0000121039A604B0C9293F900305F4ACDE9E7
:1016E0000667CDE90845CDE90412002B7BD1CDE991
:1016F0000AAB04A800F062FF00287BD00C9B1BB152
:10170000FFF7A8F90C9B0360DDE90A34CDE900344A
:101710009AE704A800F052FF002870D00C9B002B21
:10172000F2D0FFF797F9DDE90A34CDE900340C9BDC
:10173000036089E73046394600F03AFF00288FD031
:101740002046294600F034FF002889D0DDE9002337
:101750001046194601F09CFC002840F0A4800322AA
:1017600004923D4A3D4B92F90080CDE90667CDE9F0
:1017700008450C900593B8F1000F45D14FF0604833
:10178000DFF8F09052465B4630463946CDE90A898B
:1017900001F056FC002846D104A800F00FFF0028F5
:1017A000ACD1FFF757F922230360A7E700220023FB
:1017B0002046294601F03AFC00283FF445AF0122BB
:1017C00000202749254BB9F1020FCDE90667CDE985
:1017D0000845CDE90A01CDF830B00492059398D1BF
:1017E000CDE9000130E700201E49022BCDE90A01B6
:1017F0007FF47FAFFFF72EF9212303607EE7FFF729
:1018000029F92123036089E7304600263946164F1F
:1018100052465B46CDE90A6701F012FC60BBB8F1A5
:10182000020FBED0B8E70022104B2046294601F037
:1018300095F904460D4600F0C9FE22462B4601F0FC
:10184000F5FB60BB4FF06042094B0349CDE90A2329
:1018500091F90080E3E700BF04000020C8390A08BE
:101860000000F03F0000F0FF0000F07F0000E03FCC
:10187000FFFFEFC7FFFFEF470022194B2046294625
:1018800001F06CF904460D4600F0A0FE22462B46FE
:1018900001F0CCFB18B90022124BCDE90A23124B00
:1018A00093F90080BBE701220F4BCDE9066793F95E
:1018B00000900E4BCDE90845CDE90423CDF83080EA
:1018C000B9F1000F3FF413AF52465B4650465946FC
:1018D00001F06EFAB9F1020FCDE90A018AD008E7EA
:1018E0000000E03F0000F0FF04000020C8390A08B3
:1018F0002DE9F04F23F000451F46984655EA0203B4
:1019000095B037D08B4689466F492BF000448C4206
:101910008246034628DC164635D08D4224DC6A49CF
:101920008D421FD0B9F1000F36DB00210291002A51
:101930004DD1654A954200F09D80644A954200F081
:10194000AB80B8F1804F00F0D484614A90453ED11D
:10195000B9F1000F3BDB5046594615B0BDE8F04FDA
:1019600000F05EBD002ADDD004F1404404F580148F
:1019700023430BD10023554CCDE90034DDE90001B0
:1019800015B0BDE8F08F08B9A542C8DD514815B0C3
:10199000BDE8F04F00F014BE4F498D4200F3858042
:1019A000A1F154718D420EDD2915A1F2FF311429E8
:1019B00040F3A984C1F1340122FA01F000FA01F1E7
:1019C000914200F0F68400210291002AB5D05046E1
:1019D00059460C9300F0E8FD0C9BCDE9000143BB98
:1019E00024B13A4B29F040429A4222D1B8F1000F7B
:1019F00007DADDE900230020344901F0D9F9CDE907
:101A00000001B9F1000FB9DA029B04F1404404F57A
:101A10008014234340F09C84DDE9002310461946DE
:101A200000F0E4FE02460B4601F0C2F9CDE90001E8
:101A3000A4E7029A4FEAD973013B0C93134337D0C2
:101A4000264B9D424EDD03F104739D42244B40F32F
:101A5000DF839C4240F35E83B8F1000F40F35E8366
:101A600017A3D3E900231046194601F077F8CDE912
:101A7000000183E704F1404202F5801213433FF472
:101A800079AF174B9C4240F37383B8F1000FC0F25B
:101A90004583CDE9006771E7B8F1000FC0F21F84FC
:101AA00050465946CDE9000168E7022102913EE720
:101AB000524650465B465946B2E700BFAFF300803E
:101AC0009C7500883CE4377E0000F07F0000F03F0A
:101AD0000000E03FCC390A08FFFF3F430000E0412F
:101AE000FFFFEF3FD04B09EA0303002B40F0568382
:101AF000DDE900010022CD4B01F030F86FF0340C2D
:101B00000C46CDE900012315C94AC4F31304A3F21E
:101B1000FF3344F07F5503EB0C0194420D9145F4E3
:101B2000401540F32E83C34B9C4240F31E84002398
:101B30000024CDE90A34CDE9123400234FF0000A25
:101B4000BD4C0131CDE906340D91A5F58015DDE9D7
:101B500000012946DDE90623CDE9080100F046FE33
:101B6000DDE9062380468946DDE9080100F040FEF4
:101B700002460B460020B04901F01AF903460C4614
:101B80001A46CDE90E3440462346494600F0E6FFAA
:101B90000C46034601462246CDE9043400240020C9
:101BA0006B1043F0005303F50023CDE9001203EB63
:101BB0000A010094DDE900AB04460D4602460B46DF
:101BC0005046594600F0CAFF02460B464046494679
:101BD00000F00CFEDDE906238046894620462946B2
:101BE00000F004FE02460B46DDE9080100F0FEFDB0
:101BF00052465B4600F0B2FF02460B46404649465D
:101C000000F0F4FDDDE90E2300F0A8FFDDE9048912
:101C100004460D4642464B4640464946CDE90645F8
:101C200000F09CFF6EA3D3E9002304460D4600F0AC
:101C300095FF6DA3D3E9002300F0DAFD22462B4681
:101C400000F08CFF6AA3D3E9002300F0D1FD224607
:101C50002B4600F083FF68A3D3E9002300F0C8FD02
:101C600022462B4600F07AFF65A3D3E9002300F05B
:101C7000BFFD22462B4600F071FF63A3D3E900238A
:101C800000F0B6FD22462B4604460D461046194686
:101C900000F064FF02460B462046294600F05EFF36
:101CA00004460D4652465B4640464946CDE9048906
:101CB00000F09EFDDDE9062300F050FF22462B4692
:101CC00000F096FD524604460D465B465046594686
:101CD00000F044FFA046A94604460D460022574B9B
:101CE000CDE9104500F084FD42464B46CDE90E8912
:101CF00000F07EFD0D46009C2B462246504659467C
:101D000000F02CFF804689460022204629464B4B96
:101D1000CDE9088900F06AFDDDE9102300F066FDD9
:101D200002460B46DDE90E0100F060FDDDE904230B
:101D300000F014FF224680468946DDE906012B4665
:101D400000F00CFF02460B464046494600F050FDAD
:101D500082468B46DDE9080152465B4600F048FDAD
:101D60002BA3D3E90023009C0D46204600F0F6FE8D
:101D7000DDE908238046894620462946CDE90489C5
:101D800000F034FD02460B465046594600F02EFD49
:101D900021A3D3E9002300F0E1FE21A3D3E900232E
:101DA000804689462046294600F0D8FE02460B466A
:101DB0004046494600F01CFDDDE9122300F018FD05
:101DC00082460D988B4600F05FFE80468946DDE92D
:101DD000040152465B4600F00BFD31E0AFF300809A
:101DE000EF4E454A287ECA3F65DBC9934A86CD3F00
:101DF00001411DA96074D13F4D268F515555D53FE6
:101E0000FFAB6FDBB66DDB3F033333333333E33F7D
:101E1000000000E009C7EE3FFD033ADC09C7EE3FD2
:101E2000F5015B14E02F3EBE0000F07F0000404350
:101E30008E98030079B60B000000F03F00000840C8
:101E4000DDE90A2300F0D4FC42464B4600F0D0FC0A
:101E5000009C42464B4620460D4600F0C7FCDDE99B
:101E60000A2300F0C3FCDDE9042300F0BFFC0246B6
:101E70000B465046594600F0B9FC82468B46029B01
:101E80000C9A013B13434FF000020CBFDA4BDB4BC3
:101E9000CDE90067CDE9022300230093DDE9008945
:101EA0003046424639464B4600F0A0FC22462B46BF
:101EB00000F054FE32463B4606460F465046594611
:101EC00000F04CFE02460B463046394600F090FCCE
:101ED000424682468B464B462046294600F03EFE4F
:101EE00006460F4650463B465946324600F080FCB7
:101EF000C34B044699420D46884640F3148101F1D4
:101F00003F4303F5E003034340F01282A6A3D3E965
:101F100000235046594600F06BFC3246CDE90001E3
:101F20003B462046294600F061FC02460B46DDE9AF
:101F3000000101F0A3F8002840F0FA81C8F30A5329
:101F40004FF480120020A3F2FE3342FA03F343441D
:101F5000AC4CC3F30A52A2F2FF3244FA02FCC3F3C0
:101F6000130523EA0C01C2F1140445F48015B8F1FD
:101F7000000F0B4645FA04F10C91B8BF49420246E6
:101F8000B8BF0C913046394600F030FC06460F468B
:101F900050463B465946324600F02AFC0D460C9B03
:101FA0001B050093002482A3D3E900232046294681
:101FB00000F0D4FD3246804689463B4620462946FD
:101FC00000F014FC02460B465046594600F00EFC49
:101FD00079A3D3E9002300F0C1FD79A3D3E900235D
:101FE00006460F462046294600F0B8FD02460B463D
:101FF0003046394600F0FCFB06460F4632463B466B
:102000004046494600F0F4FB42464B460D46044626
:1020100000F0ECFB02460B463046394600F0E6FB8A
:102020002B4682468B4622462946204600F096FDE6
:1020300065A3D3E9002306460F4600F08FFD64A395
:10204000D3E9002300F0D2FB32463B4600F086FD88
:1020500061A3D3E9002300F0CBFB32463B4600F0FE
:102060007DFD5FA3D3E9002300F0C0FB32463B4671
:1020700000F074FD5CA3D3E9002300F0B9FB324605
:102080003B4600F06BFD02460B462046294600F019
:10209000ADFB06460F4632463B462946204600F039
:1020A0005DFD0022804689464FF080433046394628
:1020B00000F09CFB02460B464046494600F078FE85
:1020C000524606460F465B462946204600F046FD2E
:1020D00052465B4600F08CFB02460B4630463946C2
:1020E00000F084FB2B46224600F080FB02460B46A4
:1020F0000020424900F07AFB009D0D44B5F5801F99
:10210000C0F253812946DDE9022300F027FDCDE925
:10211000000133E4B8F1000FFFF6A2AC0023002465
:10212000CDE900342AE4DFF8E4C021F00043634540
:1021300040F3F680344B0B4403430AD132463B460E
:1021400000F054FB52465B4600F08EFF00283FF43F
:10215000F5AE27A3D3E90023DDE9020100F0FEFC80
:1021600023A3D3E9002300F0F9FCCDE9000105E445
:10217000B8F1000FD2DA07F1004300960193FFF7A0
:10218000FDBB00230024CDE90A34CDE9123400233D
:102190001A4C4FF0000ACDE90634D8E44FF0000C99
:1021A000B1E400BFAFF30080FE822B654715973C7A
:1021B00000000000432EE63FEF39FAFE422EE63FD4
:1021C000396CA80C615C20BED0A4BE726937663E33
:1021D000F16BD2C541BDBB3E2CDE25AF6A56113F27
:1021E00093BDBE166CC1663F3E5555555555C53F0E
:1021F00059F3F8C21F6EA5010000F0BF0000F03FC8
:10220000FFFF8F40FFFF0F0000346F3FFFCB904078
:102210009C42FFF67FAF7E4B9C423FF71DACDDE951
:10222000000100227A4B00F0E1FA6BA3D3E900230E
:1022300004460D4600F092FC69A3D3E900238246D0
:102240008B462046294600F089FC002280468946BC
:10225000204629466F4B00F081FC02460B4662A1E6
:10226000D1E9000100F0C2FA22462B4600F076FCCC
:1022700002460B460020684900F0B8FA22462B4679
:1022800004460D461046194600F068FC02460B460F
:102290002046294600F062FC55A3D3E9002300F054
:1022A0005DFC02460B464046494600F09FFA8046D8
:1022B00089465046594642464B46002400F098FA5B
:1022C00052465B4620460D4600F090FA02460B4609
:1022D0004046494600F08AFA82468B46CFE5524690
:1022E0005B4600204A4900F063FDCDE90001FFF79D
:1022F00045BB524650465B46594600F02FFCCDE99F
:102300000001FFF73BBB002A41D1C1F1140145FA9E
:1023100001F000FA01F1A94255D00292FFF70DBB7E
:102320003D4A934256DCDDE9001200910C9139E6FA
:1023300031A3D3E90023DDE9020100F00FFC2EA355
:10234000D3E9002300F00AFCCDE90001FFF716BB3A
:10235000029B012B7FF412ABDDE90045224605F11B
:102360000043CDE90023FFF709BB25A4D4E90034DD
:10237000CDE90A3424A4D4E90034CDE91234002391
:10238000264C4FF4802ACDE90634FFF7E0BB5046D7
:102390005946029300F008F9029BCDE90001002B99
:1023A0007FF486AB0293FFF71BBB0C9A00F0A0F9F9
:1023B000A9E600F00100C0F102010291002A3FF4F9
:1023C000BCAAFFF704BB00F00100C0F102020292B8
:1023D000FFF7B3BA1B15B3E5000000604715F73FE0
:1023E00044DF5DF80BAE543E555555555555D53F18
:1023F000FE822B654715F73F9C7500883CE4377ECD
:102400000000004003B8E23F06D0CF43EBFD4C3E56
:102410000000F03F0000D03F0000E03F0000F83F28
:10242000604A2DE9F0418A430E46054600F0978048
:1024300000290B4604464EDD09155AD0C3F3130399
:10244000CA0743F48013A1F2FF3E03D45B0003EB01
:10245000D47364004FF0000C162566464FF400124A
:10246000E10F4FEA6E0E01EB43036400B11899428D
:1024700002DC5B1A8E1894445B00013D03EBD473BD
:102480004FEA52024FEA4404F0D12F4620204FF089
:10249000004209E03DD0E10F01384FEA520201EB62
:1024A00043034FEA44043DD0B34202EB0501F1DDA2
:1024B000002901EB020509DBB0469B1BA14288BF46
:1024C00003F1FF334646641A1744E4E7002DF3DBBB
:1024D00006F10108F1E721F00042024357D000293C
:1024E0004BD1E20A134615396405002AF9D0D70208
:1024F00052D400205B00DE02054600F10100F9D550
:102500001A4623468440C0F12000C3401343491BB0
:1025100094E7A142BFD8002901EB0205D6DB98461B
:102520000023CFE7234313D178084FEA6C0303F16C
:102530007F5303F500131CF0010F18BF40F000405B
:1025400003EB0E5502462B4610461946BDE8F081B6
:102550007B1C16BF781C0CF1010C4008E5E7024615
:102560000B4600F0FBFA2A46334600F041F90246DA
:102570000B4610461946BDE8F081024600F036F9D8
:1025800002460B4600F014FC02460B46DCE702460E
:1025900019461046BDE8F081234620204FF0FF3554
:1025A000B3E700BF0000F07F21F00041704700BF9B
:1025B00041F0004000F58010C00F704700207047C8
:1025C00000200149704700BF0000F87FF0B5C1F35B
:1025D0000A5CACF2FF36132E02460B460D46074648
:1025E00083B04FEAD1742FDC002E4CDB3D493141E2
:1025F00003EA010010432CD003EA510352EA030717
:102600004FEA51010BD04FF48023132E0CBF4FF033
:102610000047002725EA010143FA06F50D43324938
:102620002B4601EBC404D4E900453A46204629462E
:1026300000F0DEF8CDE90001DDE9000122462B467D
:1026400000F0D4F803B0F0BD332E06DDB6F5806F90
:1026500045D01046194603B0F0BD4FF0FF31ACF243
:10266000134C21FA0CF10842F3D010EA51024FEA60
:102670005103D4D04FF0804220EA030742FA0CFC09
:1026800047EA0C07CBE721F0004101431946E2D0AD
:10269000C3F313031F437B423B436D0C1B0B6D04C1
:1026A00003F4002343EA05010B460F4901EBC40183
:1026B000D1E900673046394600F09AF8CDE90001CB
:1026C000DDE9000132463B4600F090F8024621F079
:1026D000004141EAC4731046194603B0F0BD00F052
:1026E00087F8B8E7FFFF0F00D0390A0800000000A4
:1026F000F8B5C1F30A5304460D460E46174673BBA0
:10270000034621F00046334328D0314B002200F02D
:1027100025FA304B04469F420D461ADB0E46C1F3A4
:102720000A53363B40F2FE723B44934220DC002BBE
:102730003CDC13F1350F2CDA4CF250339F4217DC9E
:1027400005F0004343F0D27141F4B731224841F023
:102750001F011BA3D3E9002300F000FAF8BD40F2EB
:10276000FF729342DED102460B4600F041F8F8BDFD
:1027700005F0004444F0FC4141F45F1141F4105174
:1027800011A3D3E90023154841F03C0100F0E6F91C
:10279000F8BD26F0FF4626F4E006363346EA03513C
:1027A000204600220E4B00F0D9F9F8BD26F0FF4676
:1027B00026F4E006204646EA0351F8BDAFF3008058
:1027C00059F3F8C21F6EA5019C7500883CE4377E62
:1027D00000005043B03CFFFF59F3F8C29C750088DD
:1027E0000000903C81F0004102E000BF83F0004314
:1027F00030B54FEA41044FEA430594EA050F08BF9C
:1028000090EA020F1FBF54EA000C55EA020C7FEA5F
:10281000645C7FEA655C00F0E2804FEA5454D4EBDC
:102820005555B8BF6D420CDD2C4480EA020281EAA6
:10283000030382EA000083EA010180EA020281EADE
:102840000303362D88BF30BD11F0004F4FEA013130
:102850004FF4801C4CEA113102D0404261EB41013F
:1028600013F0004F4FEA03334CEA133302D05242C5
:1028700063EB430394EA050F00F0A780A4F1010481
:10288000D5F1200E0DDB02FA0EFC22FA05F28018BB
:1028900041F1000103FA0EF2801843FA05F35941A1
:1028A0000EE0A5F120050EF1200E012A03FA0EFC20
:1028B00028BF4CF0020C43FA05F3C01851EBE3714A
:1028C00001F0004507D54FF0000EDCF1000C7EEB67
:1028D00000006EEB0101B1F5801F1BD3B1F5001FA5
:1028E0000CD349085FEA30004FEA3C0C04F10104C4
:1028F0004FEA445212F5800F80F09A80BCF1004FED
:1029000008BF5FEA500C50F1000041EB045141EA6E
:10291000050130BD5FEA4C0C404141EB0101013C37
:1029200028BFB1F5801FE9D291F0000F04BF014626
:102930000020B1FA81F308BF2033A3F10B03B3F1F8
:1029400020020CDA0C3208DD02F1140CC2F10C0288
:1029500001FA0CF021FA02F10CE002F11402D8BFE6
:10296000C2F1200C01FA02F120FA0CFCDCBF41EAB2
:102970000C019040E41AA2BF01EB0451294330BD81
:102980006FEA04041F3C1CDA0C340EDC04F114045E
:10299000C4F1200220FA04F001FA02F340EA030035
:1029A00021FA04F345EA030130BDC4F10C04C4F17B
:1029B000200220FA02F001FA04F340EA030029465B
:1029C00030BD21FA04F0294630BD94F0000F83F4A5
:1029D000801306BF81F480110134013D4EE77FEA88
:1029E000645C18BF7FEA655C29D094EA050F08BFD4
:1029F00090EA020F05D054EA000C04BF19461046B5
:102A000030BD91EA030F1EBF0021002030BD5FEAF8
:102A1000545C05D14000494128BF41F0004130BD20
:102A200014F580043CBF01F5801130BD01F0004574
:102A300045F0FE4141F470014FF0000030BD7FEAE7
:102A4000645C1ABF194610467FEA655C1CBF0B46E2
:102A5000024650EA013406BF52EA033591EA030FF9
:102A600041F4002130BD00BF90F0000F04BF0021F1
:102A7000704730B54FF4806404F132044FF0000524
:102A80004FF0000150E700BF90F0000F04BF00219D
:102A9000704730B54FF4806404F1320410F0004503
:102AA00048BF40424FF000013EE700BF42004FEAFE
:102AB000E2014FEA31014FEA02701FBF12F07F437B
:102AC00093F07F4F81F06051704732F07F4208BF32
:102AD000704793F07F4F04BF41F40021704730B539
:102AE0004FF4607401F0004521F000411CE700BF85
:102AF00050EA010208BF704730B54FF000050AE008
:102B000050EA010208BF704730B511F0004502D508
:102B1000404261EB41014FF4806404F132045FEA0A
:102B2000915C3FF4D8AE4FF003025FEADC0C18BFB3
:102B300003325FEADC0C18BF033202EBDC02C2F1A5
:102B4000200300FA03FC20FA02F001FA03FE40EA37
:102B50000E0021FA02F11444BDE600BF70B54FF03B
:102B6000FF0C4CF4E06C1CEA11541DBF1CEA135519
:102B700094EA0C0F95EA0C0F00F0DEF82C4481EA81
:102B8000030621EA4C5123EA4C5350EA013518BFA1
:102B900052EA033541F4801143F4801338D0A0FB8E
:102BA00002CE4FF00005E1FB02E506F00042E0FB3B
:102BB00003E54FF00006E1FB03569CF0000F18BF41
:102BC0004EF0010EA4F1FF04B6F5007F64F54074E9
:102BD00004D25FEA4E0E6D4146EB060642EAC6217C
:102BE00041EA55514FEAC52040EA5E504FEACE2EE9
:102BF000B4F1FD0C88BFBCF5E06F1ED8BEF1004FEC
:102C000008BF5FEA500E50F1000041EB045170BD67
:102C100006F0004646EA010140EA020081EA0301AB
:102C2000B4EB5C04C2BFD4EB0C0541EA045170BDA7
:102C300041F480114FF0000E013C00F3AB8014F121
:102C4000360FDEBF002001F0004170BDC4F100046A
:102C5000203C35DA0C341BDC04F11404C4F12005EB
:102C600000FA05F320FA04F001FA05F240EA020046
:102C700001F0004221F0004110EBD37021FA04F67C
:102C800042EB06015EEA430E08BF20EAD37070BD36
:102C9000C4F10C04C4F1200500FA04F320FA05F095
:102CA00001FA04F240EA020001F0004110EBD37097
:102CB00041F100015EEA430E08BF20EAD37070BD07
:102CC000C4F1200500FA05F24EEA020E20FA04F3E0
:102CD00001FA05F243EA020321FA04F001F000418F
:102CE00021FA04F220EA020000EBD3705EEA430E00
:102CF00008BF20EAD37070BD94F0000F0FD101F02F
:102D00000046400041EB010111F4801F08BF013C67
:102D1000F7D041EA060195F0000F18BF704703F0A5
:102D20000046520043EB030313F4801F08BF013D2C
:102D3000F7D043EA0603704794EA0C0F0CEA1355E8
:102D400018BF95EA0C0F0CD050EA410618BF52EAA2
:102D50004306D1D181EA030101F000414FF00000A8
:102D600070BD50EA410606BF1046194652EA4306B6
:102D700019D094EA0C0F02D150EA013613D195EA2A
:102D80000C0F05D152EA03361CBF104619460AD172
:102D900081EA030101F0004141F0FE4141F470017C
:102DA0004FF0000070BD41F0FE4141F4780170BD6C
:102DB00070B54FF0FF0C4CF4E06C1CEA11541DBFD1
:102DC0001CEA135594EA0C0F95EA0C0F00F0A7F8D3
:102DD000A4EB050481EA030E52EA03354FEA013100
:102DE00000F088804FEA03334FF0805545EA131313
:102DF00043EA12634FEA022245EA111545EA1065DB
:102E00004FEA00260EF000419D4208BF964244F171
:102E1000FD0404F5407402D25B084FEA3202B61A90
:102E200065EB03055B084FEA32024FF480104FF464
:102E3000002CB6EB020E75EB030E22BFB61A7546D8
:102E400040EA0C005B084FEA3202B6EB020E75EB6B
:102E5000030E22BFB61A754640EA5C005B084FEAD3
:102E60003202B6EB020E75EB030E22BFB61A7546A0
:102E700040EA9C005B084FEA3202B6EB020E75EBAB
:102E8000030E22BFB61A754640EADC0055EA060E6C
:102E900018D04FEA051545EA16754FEA06164FEAAF
:102EA000C30343EA52734FEAC2025FEA1C1CC0D15B
:102EB00011F4801F0BD141EA00014FF000004FF0E8
:102EC000004CB6E711F4801F04BF01430020B4F1A9
:102ED000FD0C88BFBCF5E06F3FF6AFAEB5EB030C61
:102EE00004BFB6EB020C5FEA500C50F1000041EB5E
:102EF000045170BD0EF0004E4EEA113114EB5C042B
:102F0000C2BFD4EB0C0541EA045170BD41F48011FD
:102F10004FF0000E013C90E645EA060E8DE60CEA05
:102F2000135594EA0C0F08BF95EA0C0F3FF43BAF22
:102F300094EA0C0F0AD150EA01347FF434AF95EAD9
:102F40000C0F7FF425AF104619462CE795EA0C0FBD
:102F500006D152EA03353FF4FDAE1046194622E78A
:102F600050EA410618BF52EA43067FF4C5AE50EA64
:102F700041047FF40DAF52EA43057FF4EBAE12E754
:102F80004FF0FF3C06E000BF4FF0010C02E000BF35
:102F90004FF0010C4DF804CD4FEA410C7FEA6C5C18
:102FA0004FEA430C18BF7FEA6C5C1BD001B050EABB
:102FB000410C0CBF52EA430C91EA030F02BF90EAA6
:102FC000020F0020704710F1000F91EA030F58BF65
:102FD000994208BF90422CBFD8176FEAE37040F0C7
:102FE000010070474FEA410C7FEA6C5C02D150EA65
:102FF000013C07D14FEA430C7FEA6C5CD6D152EA20
:10300000033CD3D05DF8040B704700BF84461046E4
:1030100062468C461946634600E000BF01B5FFF7E3
:10302000B7FF002848BF10F1000F01BD4DF808EDB3
:10303000FFF7F4FF0CBF012000205DF808FB00BF84
:103040004DF808EDFFF7EAFF34BF012000205DF8DE
:1030500008FB00BF4DF808EDFFF7E0FF94BF01202B
:1030600000205DF808FB00BF4DF808EDFFF7CEFF2C
:1030700094BF012000205DF808FB00BF4DF808ED6B
:10308000FFF7C4FF34BF012000205DF808FB00BF3C
:103090004FEA410C7FEA6C5C02D150EA013C0AD154
:1030A0004FEA430C7FEA6C5C02D152EA033C02D146
:1030B0004FF0000070474FF0010070474FEA4102A7
:1030C00012F5001215D211D56FF47873B3EB62527A
:1030D00012D94FEAC12343F0004343EA505311F0A1
:1030E000004F23FA02F018BF404270474FF0000033
:1030F000704750EA013005D111F0004008BF6FF071
:10310000004070474FF00000704700BF4A0011D2E6
:1031100012F5001211D20DD56FF47873B3EB625231
:103120000ED44FEAC12343F0004343EA505323FA3D
:1031300002F070474FF00000704750EA013002D1B2
:103140004FF0FF3070474FF0000070474FEA4102E8
:10315000B2F1E04324BFB3F5001CDCF1FE5C0DD9F5
:1031600001F0004C4FEAC0024CEA5070B2F1004F3F
:1031700040EB830008BF20F00100704711F0804F42
:1031800021D113F13872BCBF01F00040704741F407
:1031900080114FEA5252C2F11802C2F1200C10FA0B
:1031A0000CF320FA02F018BF40F001004FEAC123EF
:1031B0004FEAD32303FA0CFC40EA0C0023FA02F393
:1031C0004FEA4303CCE77FEA625307D150EA013369
:1031D0001EBF4FF0FE4040F44000704701F0004039
:1031E00040F0FE4040F40000704700BF80F0004017
:1031F00002E000BF81F0004142001FBF5FEA4103CF
:1032000092EA030F7FEA226C7FEA236C6AD04FEACE
:103210001262D2EB1363C1BFD21841404840414013
:10322000B8BF5B42192B88BF704710F0004F40F4C5
:10323000000020F07F4018BF404211F0004F41F4E1
:10324000000121F07F4118BF494292EA030F3FD0AD
:10325000A2F1010241FA03FC10EB0C00C3F12003C0
:1032600001FA03F100F0004302D5494260EB40004F
:10327000B0F5000F13D3B0F1807F06D340084FEABA
:10328000310102F10102FE2A51D2B1F1004F40EBAF
:10329000C25008BF20F0010040EA03007047490017
:1032A00040EB0000013A28BFB0F5000FEDD2B0FAB4
:1032B00080FCACF1080CB2EB0C0200FA0CF0AABFD7
:1032C00000EBC25052421843BCBFD0401843704775
:1032D00092F0000F81F4000106BF80F4000001327B
:1032E000013BB5E74FEA41037FEA226C18BF7FEA52
:1032F000236C21D092EA030F04D092F0000F08BF94
:103300000846704790EA010F1CBF0020704712F07A
:103310007F4F04D1400028BF40F00040704712F1B9
:1033200000723CBF00F50000704700F0004343F01E
:10333000FE4040F4000070477FEA226216BF084654
:103340007FEA23630146420206BF5FEA412390EA17
:10335000010F40F4800070474FF0000304E000BF0D
:1033600010F0004348BF40425FEA000C08BF7047BE
:1033700043F0964301464FF000001CE050EA010282
:1033800008BF70474FF000030AE000BF50EA010297
:1033900008BF704711F0004302D5404261EB410184
:1033A0005FEA010C02BF84460146002043F0B643A9
:1033B00008BFA3F18053A3F50003BCFA8CF2083ACE
:1033C000A3EBC25310DB01FA02FC634400FA02FCD7
:1033D000C2F12002BCF1004F20FA02F243EB0200DE
:1033E00008BF20F00100704702F1200201FA02FC40
:1033F000C2F1200250EA4C0021FA02F243EB020033
:1034000008BF20EADC7070474FF0FF0C1CEAD05276
:103410001EBF1CEAD15392EA0C0F93EA0C0F6FD037
:103420001A4480EA010C400218BF5FEA41211ED015
:103430004FF0006343EA501043EA5111A0FB013101
:103440000CF00040B1F5000F3EBF490041EAD371D6
:103450005B0040EA010062F17F02FD2A1DD8B3F152
:10346000004F40EBC25008BF20F00100704790F0C1
:10347000000F0CF0004C08BF49024CEA502040EA13
:1034800051207F3AC2BFD2F1FF0340EAC2507047D9
:1034900040F400004FF00003013A5DDC12F1190F17
:1034A000DCBF00F000407047C2F10002410021FA89
:1034B00002F1C2F1200200FA02FC5FEA310040F1A1
:1034C000000053EA4C0308BF20EADC70704792F01A
:1034D000000F00F0004C02BF400010F4000F013A52
:1034E000F9D040EA0C0093F0000F01F0004C02BF4D
:1034F000490011F4000F013BF9D041EA0C018FE7BC
:103500000CEAD15392EA0C0F18BF93EA0C0F0AD0C1
:1035100030F0004C18BF31F0004CD8D180EA0100E7
:1035200000F00040704790F0000F17BF90F0004F80
:10353000084691F0000F91F0004F14D092EA0C0F62
:1035400001D142020FD193EA0C0F03D14B0218BFF5
:10355000084608D180EA010000F0004040F0FE403B
:1035600040F40000704740F0FE4040F440007047D7
:103570004FF0FF0C1CEAD0521EBF1CEAD15392EA56
:103580000C0F93EA0C0F69D0A2EB030280EA010C46
:1035900049024FEA402037D04FF0805343EA1111DF
:1035A00043EA10130CF000408B4238BF5B0042F13D
:1035B0007D024FF4000C8B4224BF5B1A40EA0C00E2
:1035C000B3EB510F24BFA3EB510340EA5C00B3EB14
:1035D000910F24BFA3EB910340EA9C00B3EBD10F02
:1035E00024BFA3EBD10340EADC001B0118BF5FEA54
:1035F0001C1CE0D1FD2A3FF650AF8B4240EBC2507D
:1036000008BF20F0010070470CF0004C4CEA50203D
:103610007F32C2BFD2F1FF0340EAC250704740F48C
:1036200000004FF00003013A37E792F0000F00F07E
:10363000004C02BF400010F4000F013AF9D040EAFC
:103640000C0093F0000F01F0004C02BF490011F490
:10365000000F013BF9D041EA0C0195E70CEAD15388
:1036600092EA0C0F08D142027FF47DAF93EA0C0F6F
:103670007FF470AF084676E793EA0C0F04D14B0253
:103680003FF44CAF08466EE730F0004C18BF31F005
:10369000004CCAD130F000427FF45CAF31F00043FF
:1036A0007FF43CAF5FE700BF002301461A4618468F
:1036B00000F042B80A44914200F1FF3300D1704754
:1036C00010B511F8014B914203F8014FF9D110BD2B
:1036D00003460244934200D1704703F8011BF9E707
:1036E00038B50D4B04461D68AB6B7BB91820FDF750
:1036F000A1F90A4A0A4BA863C0E90023094B012239
:1037000083600B2383810023C0E904230022AB6B79
:103710001C615A6138BD00BF080000200E33CDABDC
:1037200034126DE6ECDE0500034613F8012B002A87
:10373000FBD1181A013870472DE9F843DFF8BC8037
:103740000646D8F800001F460D46914600F058F88E
:10375000264B1C6834B9264C1C60264B13B11B68E1
:10376000C4F8883063681F2B07DDD8F8000000F02C
:1037700049F84FF0FF30BDE8F8835EB3D4F8880015
:1037800088B91D4B23B9D8F8000000F03AF8F0E7EB
:103790004FF48470FDF74EF90028F4D00023C0E9FF
:1037A0004033C4F8880001226368022E40F8239059
:1037B00002FA03F200EB8301D0F8003143EA02037E
:1037C000C0F80031C1F8807002BFD0F804311A434C
:1037D000C0F804216368D8F800005A1C0233626004
:1037E00044F8235000F00EF80020C4E71C06002027
:1037F0009005002000000000350A0A086C00002037
:10380000704770477047000021000A0861000A08ED
:1038100089000A088D000A080000000053656E73D5
:103820006F722072656164696E67207465737421BC
:103830000053656E736F72204448543A20004875F7
:103840006D656461643A200054656D7065726174E1
:103850007572613A200050726F6D6564696F2074F3
:10386000656D70657261747572613A200053656EA2
:10387000736F72204C55583A20004C757A3A2000EC
:103880006E616E00696E66006F7666002E00617074
:10389000700025592D256D2D25645425483A254D58
:1038A0003A2553257A0061736374696D65000000E1
:1038B0000000000000000000E50E0A08D50E0A080E
:1038C000D70E0A080000000000000000A30F0A083D
:1038D00009100A08E10F0A08B90A0A08D30F0A08F2
:1038E000A50F0A08B50F0A0803100A08C50F0A0831
:1038F0009D0F0A08000000000000000039110A08AE
:10390000A3110A087F110A08B90A0A084F110A0808
:103910006B110A085D110A0879110A083B110A089F
:1039200041110A08000000000000000025120A08EA
:103930006F120A0847120A0827120A084F120A08CB
:1039400057120A085F120A0867120A0800000000EE
:103950000000000037130A082D130A0823130A0871
:10396000A1120A08310D0A0817130A0895130A084C
:103970009D130A080B130A0803130A08F9120A0810
:10398000EF120A08AB120A08000000000000000055
:1039900055130A085F130A0869130A0873130A0803
:1039A0007D130A0889130A0895130A089D130A084B
:1039B000A5130A08B1130A08B9130A08C3130A08A1
:1039C000CD130A0800000000706F770000000000AF
:1039D000000000000000304300000000000030C381
:1039E0002D020A08950A0A083D0D0A084D0D0A081D
:1039F000690D0A0841130A081D140A0815150A085A
:043A000000000000C2
:103A0400A6380A08010000000C0000200000000095
:103A140000000000000000000000000000000000A2
:103A24000000000000000000000000000000000092
:103A34000000000000000000000000000000000082
:103A44000000000000000000000000000000000072
:103A54000000000000000000000000000000000062
:103A6400000000000000000000000000210600200B
:103A7400FFFFFFFF00000102030405060708090A0F
:103A84000B0C0D0E0F101112131415161718191A0A
:083A94001B1C1D1E1F20280051
:043A9C007856341212
:04000005080A0020C5
:00000001FF
